{
  "_format": "hh-sol-artifact-1",
  "contractName": "MintFirstMintmon",
  "sourceName": "contracts/MintFirstMintmon.sol",
  "abi": [
    {
      "inputs": [],
      "stateMutability": "nonpayable",
      "type": "constructor"
    },
    {
      "anonymous": false,
      "inputs": [
        {
          "indexed": true,
          "internalType": "address",
          "name": "previousOwner",
          "type": "address"
        },
        {
          "indexed": true,
          "internalType": "address",
          "name": "newOwner",
          "type": "address"
        }
      ],
      "name": "OwnershipTransferred",
      "type": "event"
    },
    {
      "inputs": [
        {
          "internalType": "address",
          "name": "adr",
          "type": "address"
        }
      ],
      "name": "checkMinted",
      "outputs": [
        {
          "internalType": "bool",
          "name": "",
          "type": "bool"
        }
      ],
      "stateMutability": "view",
      "type": "function"
    },
    {
      "inputs": [],
      "name": "mintState",
      "outputs": [
        {
          "internalType": "bool",
          "name": "",
          "type": "bool"
        }
      ],
      "stateMutability": "view",
      "type": "function"
    },
    {
      "inputs": [
        {
          "internalType": "address",
          "name": "",
          "type": "address"
        }
      ],
      "name": "minted",
      "outputs": [
        {
          "internalType": "bool",
          "name": "",
          "type": "bool"
        }
      ],
      "stateMutability": "view",
      "type": "function"
    },
    {
      "inputs": [],
      "name": "owner",
      "outputs": [
        {
          "internalType": "address",
          "name": "",
          "type": "address"
        }
      ],
      "stateMutability": "view",
      "type": "function"
    },
    {
      "inputs": [],
      "name": "players",
      "outputs": [
        {
          "internalType": "uint256",
          "name": "",
          "type": "uint256"
        }
      ],
      "stateMutability": "view",
      "type": "function"
    },
    {
      "inputs": [],
      "name": "renounceOwnership",
      "outputs": [],
      "stateMutability": "nonpayable",
      "type": "function"
    },
    {
      "inputs": [],
      "name": "safeMint",
      "outputs": [],
      "stateMutability": "nonpayable",
      "type": "function"
    },
    {
      "inputs": [
        {
          "internalType": "address",
          "name": "adr",
          "type": "address"
        },
        {
          "internalType": "bool",
          "name": "val",
          "type": "bool"
        }
      ],
      "name": "setMinted",
      "outputs": [],
      "stateMutability": "nonpayable",
      "type": "function"
    },
    {
      "inputs": [
        {
          "internalType": "bool",
          "name": "val",
          "type": "bool"
        }
      ],
      "name": "setMintstate",
      "outputs": [],
      "stateMutability": "nonpayable",
      "type": "function"
    },
    {
      "inputs": [
        {
          "internalType": "address",
          "name": "newOwner",
          "type": "address"
        }
      ],
      "name": "transferOwnership",
      "outputs": [],
      "stateMutability": "nonpayable",
      "type": "function"
    }
  ],
  "bytecode": "0x608060405273ecf044c5b4b867cfda001101c617ecd347095b44600360016101000a81548173ffffffffffffffffffffffffffffffffffffffff021916908373ffffffffffffffffffffffffffffffffffffffff1602179055503480156200006657600080fd5b50620000876200007b6200013160201b60201c565b6200013960201b60201c565b600360019054906101000a900473ffffffffffffffffffffffffffffffffffffffff1673ffffffffffffffffffffffffffffffffffffffff16634420e486326040518263ffffffff1660e01b8152600401620000e4919062000242565b6020604051808303816000875af115801562000104573d6000803e3d6000fd5b505050506040513d601f19601f820116820180604052508101906200012a91906200029f565b50620002d1565b600033905090565b60008060009054906101000a900473ffffffffffffffffffffffffffffffffffffffff169050816000806101000a81548173ffffffffffffffffffffffffffffffffffffffff021916908373ffffffffffffffffffffffffffffffffffffffff1602179055508173ffffffffffffffffffffffffffffffffffffffff168173ffffffffffffffffffffffffffffffffffffffff167f8be0079c531659141344cd1fd0a4f28419497f9722a3daafe3b4186f6b6457e060405160405180910390a35050565b600073ffffffffffffffffffffffffffffffffffffffff82169050919050565b60006200022a82620001fd565b9050919050565b6200023c816200021d565b82525050565b600060208201905062000259600083018462000231565b92915050565b600080fd5b6000819050919050565b620002798162000264565b81146200028557600080fd5b50565b60008151905062000299816200026e565b92915050565b600060208284031215620002b857620002b76200025f565b5b6000620002c88482850162000288565b91505092915050565b610a8480620002e16000396000f3fe608060405234801561001057600080fd5b506004361061009e5760003560e01c8063a299d28311610066578063a299d28314610135578063c051e38a14610151578063dc0b35641461016f578063ebbb31e41461018d578063f2fde38b146101a95761009e565b80631e7269c5146100a35780636871ee40146100d35780636c302394146100dd578063715018a61461010d5780638da5cb5b14610117575b600080fd5b6100bd60048036038101906100b89190610696565b6101c5565b6040516100ca91906106de565b60405180910390f35b6100db6101e5565b005b6100f760048036038101906100f29190610696565b610332565b60405161010491906106de565b60405180910390f35b610115610388565b005b61011f61039c565b60405161012c9190610708565b60405180910390f35b61014f600480360381019061014a919061074f565b6103c5565b005b6101596103ea565b60405161016691906106de565b60405180910390f35b6101776103fd565b6040516101849190610795565b60405180910390f35b6101a760048036038101906101a291906107b0565b610403565b005b6101c360048036038101906101be9190610696565b610466565b005b60016020528060005260406000206000915054906101000a900460ff1681565b600360009054906101000a900460ff16610234576040517f08c379a000000000000000000000000000000000000000000000000000000000815260040161022b9061084d565b60405180910390fd5b600160003373ffffffffffffffffffffffffffffffffffffffff1673ffffffffffffffffffffffffffffffffffffffff16815260200190815260200160002060009054906101000a900460ff16156102c1576040517f08c379a00000000000000000000000000000000000000000000000000000000081526004016102b8906108b9565b60405180910390fd5b60018060003373ffffffffffffffffffffffffffffffffffffffff1673ffffffffffffffffffffffffffffffffffffffff16815260200190815260200160002060006101000a81548160ff0219169083151502179055506002600081548092919061032b90610908565b9190505550565b6000600160008373ffffffffffffffffffffffffffffffffffffffff1673ffffffffffffffffffffffffffffffffffffffff16815260200190815260200160002060009054906101000a900460ff169050919050565b6103906104e9565b61039a6000610567565b565b60008060009054906101000a900473ffffffffffffffffffffffffffffffffffffffff16905090565b6103cd6104e9565b80600360006101000a81548160ff02191690831515021790555050565b600360009054906101000a900460ff1681565b60025481565b61040b6104e9565b80600160008473ffffffffffffffffffffffffffffffffffffffff1673ffffffffffffffffffffffffffffffffffffffff16815260200190815260200160002060006101000a81548160ff0219169083151502179055505050565b61046e6104e9565b600073ffffffffffffffffffffffffffffffffffffffff168173ffffffffffffffffffffffffffffffffffffffff16036104dd576040517f08c379a00000000000000000000000000000000000000000000000000000000081526004016104d4906109c2565b60405180910390fd5b6104e681610567565b50565b6104f161062b565b73ffffffffffffffffffffffffffffffffffffffff1661050f61039c565b73ffffffffffffffffffffffffffffffffffffffff1614610565576040517f08c379a000000000000000000000000000000000000000000000000000000000815260040161055c90610a2e565b60405180910390fd5b565b60008060009054906101000a900473ffffffffffffffffffffffffffffffffffffffff169050816000806101000a81548173ffffffffffffffffffffffffffffffffffffffff021916908373ffffffffffffffffffffffffffffffffffffffff1602179055508173ffffffffffffffffffffffffffffffffffffffff168173ffffffffffffffffffffffffffffffffffffffff167f8be0079c531659141344cd1fd0a4f28419497f9722a3daafe3b4186f6b6457e060405160405180910390a35050565b600033905090565b600080fd5b600073ffffffffffffffffffffffffffffffffffffffff82169050919050565b600061066382610638565b9050919050565b61067381610658565b811461067e57600080fd5b50565b6000813590506106908161066a565b92915050565b6000602082840312156106ac576106ab610633565b5b60006106ba84828501610681565b91505092915050565b60008115159050919050565b6106d8816106c3565b82525050565b60006020820190506106f360008301846106cf565b92915050565b61070281610658565b82525050565b600060208201905061071d60008301846106f9565b92915050565b61072c816106c3565b811461073757600080fd5b50565b60008135905061074981610723565b92915050565b60006020828403121561076557610764610633565b5b60006107738482850161073a565b91505092915050565b6000819050919050565b61078f8161077c565b82525050565b60006020820190506107aa6000830184610786565b92915050565b600080604083850312156107c7576107c6610633565b5b60006107d585828601610681565b92505060206107e68582860161073a565b9150509250929050565b600082825260208201905092915050565b7f6d696e74696e6720706175736564000000000000000000000000000000000000600082015250565b6000610837600e836107f0565b915061084282610801565b602082019050919050565b600060208201905081810360008301526108668161082a565b9050919050565b7f616c7265616479206d696e746564000000000000000000000000000000000000600082015250565b60006108a3600e836107f0565b91506108ae8261086d565b602082019050919050565b600060208201905081810360008301526108d281610896565b9050919050565b7f4e487b7100000000000000000000000000000000000000000000000000000000600052601160045260246000fd5b60006109138261077c565b91507fffffffffffffffffffffffffffffffffffffffffffffffffffffffffffffffff8203610945576109446108d9565b5b600182019050919050565b7f4f776e61626c653a206e6577206f776e657220697320746865207a65726f206160008201527f6464726573730000000000000000000000000000000000000000000000000000602082015250565b60006109ac6026836107f0565b91506109b782610950565b604082019050919050565b600060208201905081810360008301526109db8161099f565b9050919050565b7f4f776e61626c653a2063616c6c6572206973206e6f7420746865206f776e6572600082015250565b6000610a186020836107f0565b9150610a23826109e2565b602082019050919050565b60006020820190508181036000830152610a4781610a0b565b905091905056fea26469706673582212202e787f40aa12872b735fb932f66f2a0b042be45c37e57f1b48c9746fdba18a5364736f6c63430008130033",
  "linkReferences": {},
  "deployedLinkReferences": {}
}