{
  "_format": "hh-sol-artifact-1",
  "contractName": "Alice",
  "sourceName": "contracts/Alice.sol",
  "abi": [
    {
      "inputs": [
        {
          "internalType": "address",
          "name": "minter",
          "type": "address"
        }
      ],
      "stateMutability": "nonpayable",
      "type": "constructor"
    },
    {
      "anonymous": false,
      "inputs": [
        {
          "indexed": true,
          "internalType": "address",
          "name": "owner",
          "type": "address"
        },
        {
          "indexed": true,
          "internalType": "address",
          "name": "spender",
          "type": "address"
        },
        {
          "indexed": false,
          "internalType": "uint256",
          "name": "value",
          "type": "uint256"
        }
      ],
      "name": "Approval",
      "type": "event"
    },
    {
      "anonymous": false,
      "inputs": [
        {
          "indexed": true,
          "internalType": "bytes32",
          "name": "role",
          "type": "bytes32"
        },
        {
          "indexed": true,
          "internalType": "bytes32",
          "name": "previousAdminRole",
          "type": "bytes32"
        },
        {
          "indexed": true,
          "internalType": "bytes32",
          "name": "newAdminRole",
          "type": "bytes32"
        }
      ],
      "name": "RoleAdminChanged",
      "type": "event"
    },
    {
      "anonymous": false,
      "inputs": [
        {
          "indexed": true,
          "internalType": "bytes32",
          "name": "role",
          "type": "bytes32"
        },
        {
          "indexed": true,
          "internalType": "address",
          "name": "account",
          "type": "address"
        },
        {
          "indexed": true,
          "internalType": "address",
          "name": "sender",
          "type": "address"
        }
      ],
      "name": "RoleGranted",
      "type": "event"
    },
    {
      "anonymous": false,
      "inputs": [
        {
          "indexed": true,
          "internalType": "bytes32",
          "name": "role",
          "type": "bytes32"
        },
        {
          "indexed": true,
          "internalType": "address",
          "name": "account",
          "type": "address"
        },
        {
          "indexed": true,
          "internalType": "address",
          "name": "sender",
          "type": "address"
        }
      ],
      "name": "RoleRevoked",
      "type": "event"
    },
    {
      "anonymous": false,
      "inputs": [
        {
          "indexed": true,
          "internalType": "address",
          "name": "from",
          "type": "address"
        },
        {
          "indexed": true,
          "internalType": "address",
          "name": "to",
          "type": "address"
        },
        {
          "indexed": false,
          "internalType": "uint256",
          "name": "value",
          "type": "uint256"
        }
      ],
      "name": "Transfer",
      "type": "event"
    },
    {
      "inputs": [],
      "name": "DEFAULT_ADMIN_ROLE",
      "outputs": [
        {
          "internalType": "bytes32",
          "name": "",
          "type": "bytes32"
        }
      ],
      "stateMutability": "view",
      "type": "function"
    },
    {
      "inputs": [],
      "name": "MINTER_ROLE",
      "outputs": [
        {
          "internalType": "bytes32",
          "name": "",
          "type": "bytes32"
        }
      ],
      "stateMutability": "view",
      "type": "function"
    },
    {
      "inputs": [
        {
          "components": [
            {
              "internalType": "uint256",
              "name": "amount",
              "type": "uint256"
            },
            {
              "internalType": "bytes",
              "name": "signature",
              "type": "bytes"
            }
          ],
          "internalType": "struct Alice.ALCVoucher",
          "name": "voucher",
          "type": "tuple"
        }
      ],
      "name": "_verify",
      "outputs": [
        {
          "internalType": "address",
          "name": "",
          "type": "address"
        }
      ],
      "stateMutability": "view",
      "type": "function"
    },
    {
      "inputs": [
        {
          "internalType": "address",
          "name": "owner",
          "type": "address"
        },
        {
          "internalType": "address",
          "name": "spender",
          "type": "address"
        }
      ],
      "name": "allowance",
      "outputs": [
        {
          "internalType": "uint256",
          "name": "",
          "type": "uint256"
        }
      ],
      "stateMutability": "view",
      "type": "function"
    },
    {
      "inputs": [
        {
          "internalType": "address",
          "name": "spender",
          "type": "address"
        },
        {
          "internalType": "uint256",
          "name": "amount",
          "type": "uint256"
        }
      ],
      "name": "approve",
      "outputs": [
        {
          "internalType": "bool",
          "name": "",
          "type": "bool"
        }
      ],
      "stateMutability": "nonpayable",
      "type": "function"
    },
    {
      "inputs": [
        {
          "internalType": "address",
          "name": "account",
          "type": "address"
        }
      ],
      "name": "balanceOf",
      "outputs": [
        {
          "internalType": "uint256",
          "name": "",
          "type": "uint256"
        }
      ],
      "stateMutability": "view",
      "type": "function"
    },
    {
      "inputs": [],
      "name": "decimals",
      "outputs": [
        {
          "internalType": "uint8",
          "name": "",
          "type": "uint8"
        }
      ],
      "stateMutability": "view",
      "type": "function"
    },
    {
      "inputs": [
        {
          "internalType": "address",
          "name": "spender",
          "type": "address"
        },
        {
          "internalType": "uint256",
          "name": "subtractedValue",
          "type": "uint256"
        }
      ],
      "name": "decreaseAllowance",
      "outputs": [
        {
          "internalType": "bool",
          "name": "",
          "type": "bool"
        }
      ],
      "stateMutability": "nonpayable",
      "type": "function"
    },
    {
      "inputs": [],
      "name": "getChainID",
      "outputs": [
        {
          "internalType": "uint256",
          "name": "",
          "type": "uint256"
        }
      ],
      "stateMutability": "view",
      "type": "function"
    },
    {
      "inputs": [
        {
          "internalType": "bytes32",
          "name": "role",
          "type": "bytes32"
        }
      ],
      "name": "getRoleAdmin",
      "outputs": [
        {
          "internalType": "bytes32",
          "name": "",
          "type": "bytes32"
        }
      ],
      "stateMutability": "view",
      "type": "function"
    },
    {
      "inputs": [
        {
          "internalType": "bytes32",
          "name": "role",
          "type": "bytes32"
        },
        {
          "internalType": "address",
          "name": "account",
          "type": "address"
        }
      ],
      "name": "grantRole",
      "outputs": [],
      "stateMutability": "nonpayable",
      "type": "function"
    },
    {
      "inputs": [
        {
          "internalType": "bytes32",
          "name": "role",
          "type": "bytes32"
        },
        {
          "internalType": "address",
          "name": "account",
          "type": "address"
        }
      ],
      "name": "hasRole",
      "outputs": [
        {
          "internalType": "bool",
          "name": "",
          "type": "bool"
        }
      ],
      "stateMutability": "view",
      "type": "function"
    },
    {
      "inputs": [
        {
          "internalType": "address",
          "name": "spender",
          "type": "address"
        },
        {
          "internalType": "uint256",
          "name": "addedValue",
          "type": "uint256"
        }
      ],
      "name": "increaseAllowance",
      "outputs": [
        {
          "internalType": "bool",
          "name": "",
          "type": "bool"
        }
      ],
      "stateMutability": "nonpayable",
      "type": "function"
    },
    {
      "inputs": [],
      "name": "name",
      "outputs": [
        {
          "internalType": "string",
          "name": "",
          "type": "string"
        }
      ],
      "stateMutability": "view",
      "type": "function"
    },
    {
      "inputs": [
        {
          "internalType": "address",
          "name": "redeemer",
          "type": "address"
        },
        {
          "components": [
            {
              "internalType": "uint256",
              "name": "amount",
              "type": "uint256"
            },
            {
              "internalType": "bytes",
              "name": "signature",
              "type": "bytes"
            }
          ],
          "internalType": "struct Alice.ALCVoucher",
          "name": "voucher",
          "type": "tuple"
        }
      ],
      "name": "redeem",
      "outputs": [],
      "stateMutability": "nonpayable",
      "type": "function"
    },
    {
      "inputs": [
        {
          "internalType": "bytes32",
          "name": "role",
          "type": "bytes32"
        },
        {
          "internalType": "address",
          "name": "account",
          "type": "address"
        }
      ],
      "name": "renounceRole",
      "outputs": [],
      "stateMutability": "nonpayable",
      "type": "function"
    },
    {
      "inputs": [
        {
          "internalType": "bytes32",
          "name": "role",
          "type": "bytes32"
        },
        {
          "internalType": "address",
          "name": "account",
          "type": "address"
        }
      ],
      "name": "revokeRole",
      "outputs": [],
      "stateMutability": "nonpayable",
      "type": "function"
    },
    {
      "inputs": [
        {
          "internalType": "bytes4",
          "name": "interfaceId",
          "type": "bytes4"
        }
      ],
      "name": "supportsInterface",
      "outputs": [
        {
          "internalType": "bool",
          "name": "",
          "type": "bool"
        }
      ],
      "stateMutability": "view",
      "type": "function"
    },
    {
      "inputs": [],
      "name": "symbol",
      "outputs": [
        {
          "internalType": "string",
          "name": "",
          "type": "string"
        }
      ],
      "stateMutability": "view",
      "type": "function"
    },
    {
      "inputs": [],
      "name": "totalSupply",
      "outputs": [
        {
          "internalType": "uint256",
          "name": "",
          "type": "uint256"
        }
      ],
      "stateMutability": "view",
      "type": "function"
    },
    {
      "inputs": [
        {
          "internalType": "address",
          "name": "to",
          "type": "address"
        },
        {
          "internalType": "uint256",
          "name": "amount",
          "type": "uint256"
        }
      ],
      "name": "transfer",
      "outputs": [
        {
          "internalType": "bool",
          "name": "",
          "type": "bool"
        }
      ],
      "stateMutability": "nonpayable",
      "type": "function"
    },
    {
      "inputs": [
        {
          "internalType": "address",
          "name": "from",
          "type": "address"
        },
        {
          "internalType": "address",
          "name": "to",
          "type": "address"
        },
        {
          "internalType": "uint256",
          "name": "amount",
          "type": "uint256"
        }
      ],
      "name": "transferFrom",
      "outputs": [
        {
          "internalType": "bool",
          "name": "",
          "type": "bool"
        }
      ],
      "stateMutability": "nonpayable",
      "type": "function"
    }
  ],
  "bytecode": "0x6101406040523480156200001257600080fd5b50604051620034df380380620034df833981810160405281019062000038919062000442565b6040518060400160405280600d81526020017f416c6963652d566f7563686572000000000000000000000000000000000000008152506040518060400160405280600181526020017f31000000000000000000000000000000000000000000000000000000000000008152506040518060400160405280600581526020017f416c6963650000000000000000000000000000000000000000000000000000008152506040518060400160405280600381526020017f414c4300000000000000000000000000000000000000000000000000000000008152508160039081620001219190620006ee565b508060049081620001339190620006ee565b50505060008280519060200120905060008280519060200120905060007f8b73c3c69bb8fe3d512ecc4cf759cc79239f7b179b0ffacaa9a75d522b39400f90508260e081815250508161010081815250504660a081815250506200019f8184846200022160201b60201c565b608081815250503073ffffffffffffffffffffffffffffffffffffffff1660c08173ffffffffffffffffffffffffffffffffffffffff168152505080610120818152505050505050506200021a7f9f2df0fed2c77648de5860a4cc508cd0818c85b8b8a1ab4ceeef8d981c8956a6826200025d60201b60201c565b506200086f565b600083838346306040516020016200023e95949392919062000812565b6040516020818303038152906040528051906020012090509392505050565b6200026f82826200027360201b60201c565b5050565b6200028582826200036560201b60201c565b620003615760016005600084815260200190815260200160002060000160008373ffffffffffffffffffffffffffffffffffffffff1673ffffffffffffffffffffffffffffffffffffffff16815260200190815260200160002060006101000a81548160ff02191690831515021790555062000306620003d060201b60201c565b73ffffffffffffffffffffffffffffffffffffffff168173ffffffffffffffffffffffffffffffffffffffff16837f2f8788117e7eff1d82e926ec794901d17c78024a50270940304540a733656f0d60405160405180910390a45b5050565b60006005600084815260200190815260200160002060000160008373ffffffffffffffffffffffffffffffffffffffff1673ffffffffffffffffffffffffffffffffffffffff16815260200190815260200160002060009054906101000a900460ff16905092915050565b600033905090565b600080fd5b600073ffffffffffffffffffffffffffffffffffffffff82169050919050565b60006200040a82620003dd565b9050919050565b6200041c81620003fd565b81146200042857600080fd5b50565b6000815190506200043c8162000411565b92915050565b6000602082840312156200045b576200045a620003d8565b5b60006200046b848285016200042b565b91505092915050565b600081519050919050565b7f4e487b7100000000000000000000000000000000000000000000000000000000600052604160045260246000fd5b7f4e487b7100000000000000000000000000000000000000000000000000000000600052602260045260246000fd5b60006002820490506001821680620004f657607f821691505b6020821081036200050c576200050b620004ae565b5b50919050565b60008190508160005260206000209050919050565b60006020601f8301049050919050565b600082821b905092915050565b600060088302620005767fffffffffffffffffffffffffffffffffffffffffffffffffffffffffffffffff8262000537565b62000582868362000537565b95508019841693508086168417925050509392505050565b6000819050919050565b6000819050919050565b6000620005cf620005c9620005c3846200059a565b620005a4565b6200059a565b9050919050565b6000819050919050565b620005eb83620005ae565b62000603620005fa82620005d6565b84845462000544565b825550505050565b600090565b6200061a6200060b565b62000627818484620005e0565b505050565b5b818110156200064f576200064360008262000610565b6001810190506200062d565b5050565b601f8211156200069e57620006688162000512565b620006738462000527565b8101602085101562000683578190505b6200069b620006928562000527565b8301826200062c565b50505b505050565b600082821c905092915050565b6000620006c360001984600802620006a3565b1980831691505092915050565b6000620006de8383620006b0565b9150826002028217905092915050565b620006f98262000474565b67ffffffffffffffff8111156200071557620007146200047f565b5b620007218254620004dd565b6200072e82828562000653565b600060209050601f83116001811462000766576000841562000751578287015190505b6200075d8582620006d0565b865550620007cd565b601f198416620007768662000512565b60005b82811015620007a05784890151825560018201915060208501945060208101905062000779565b86831015620007c05784890151620007bc601f891682620006b0565b8355505b6001600288020188555050505b505050505050565b6000819050919050565b620007ea81620007d5565b82525050565b620007fb816200059a565b82525050565b6200080c81620003fd565b82525050565b600060a082019050620008296000830188620007df565b620008386020830187620007df565b620008476040830186620007df565b620008566060830185620007f0565b62000865608083018462000801565b9695505050505050565b60805160a05160c05160e0516101005161012051612c20620008bf600039600061192501526000611967015260006119460152600061187b015260006118d1015260006118fa0152612c206000f3fe608060405234801561001057600080fd5b50600436106101425760003560e01c8063564b81ef116100b8578063a457c2d71161007c578063a457c2d7146103b3578063a9059cbb146103e3578063c215f5d214610413578063d53913931461042f578063d547741f1461044d578063dd62ed3e1461046957610142565b8063564b81ef146102f957806370a082311461031757806391d148541461034757806395d89b4114610377578063a217fddf1461039557610142565b8063248a9ca31161010a578063248a9ca3146102135780632f2ff15d14610243578063313ce5671461025f57806336568abe1461027d578063395093511461029957806354d182c0146102c957610142565b806301ffc9a71461014757806306fdde0314610177578063095ea7b31461019557806318160ddd146101c557806323b872dd146101e3575b600080fd5b610161600480360381019061015c9190611b42565b610499565b60405161016e9190611b8a565b60405180910390f35b61017f610513565b60405161018c9190611c35565b60405180910390f35b6101af60048036038101906101aa9190611ceb565b6105a5565b6040516101bc9190611b8a565b60405180910390f35b6101cd6105c8565b6040516101da9190611d3a565b60405180910390f35b6101fd60048036038101906101f89190611d55565b6105d2565b60405161020a9190611b8a565b60405180910390f35b61022d60048036038101906102289190611dde565b610601565b60405161023a9190611e1a565b60405180910390f35b61025d60048036038101906102589190611e35565b610621565b005b610267610642565b6040516102749190611e91565b60405180910390f35b61029760048036038101906102929190611e35565b61064b565b005b6102b360048036038101906102ae9190611ceb565b6106ce565b6040516102c09190611b8a565b60405180910390f35b6102e360048036038101906102de9190611ed0565b610705565b6040516102f09190611f28565b60405180910390f35b610301610777565b60405161030e9190611d3a565b60405180910390f35b610331600480360381019061032c9190611f43565b610784565b60405161033e9190611d3a565b60405180910390f35b610361600480360381019061035c9190611e35565b6107cc565b60405161036e9190611b8a565b60405180910390f35b61037f610837565b60405161038c9190611c35565b60405180910390f35b61039d6108c9565b6040516103aa9190611e1a565b60405180910390f35b6103cd60048036038101906103c89190611ceb565b6108d0565b6040516103da9190611b8a565b60405180910390f35b6103fd60048036038101906103f89190611ceb565b610947565b60405161040a9190611b8a565b60405180910390f35b61042d60048036038101906104289190611f70565b61096a565b005b6104376109f3565b6040516104449190611e1a565b60405180910390f35b61046760048036038101906104629190611e35565b610a17565b005b610483600480360381019061047e9190611fcc565b610a38565b6040516104909190611d3a565b60405180910390f35b60007f7965db0b000000000000000000000000000000000000000000000000000000007bffffffffffffffffffffffffffffffffffffffffffffffffffffffff1916827bffffffffffffffffffffffffffffffffffffffffffffffffffffffff1916148061050c575061050b82610abf565b5b9050919050565b6060600380546105229061203b565b80601f016020809104026020016040519081016040528092919081815260200182805461054e9061203b565b801561059b5780601f106105705761010080835404028352916020019161059b565b820191906000526020600020905b81548152906001019060200180831161057e57829003601f168201915b5050505050905090565b6000806105b0610b29565b90506105bd818585610b31565b600191505092915050565b6000600254905090565b6000806105dd610b29565b90506105ea858285610cfa565b6105f5858585610d86565b60019150509392505050565b600060056000838152602001908152602001600020600101549050919050565b61062a82610601565b61063381610ffc565b61063d8383611010565b505050565b60006012905090565b610653610b29565b73ffffffffffffffffffffffffffffffffffffffff168173ffffffffffffffffffffffffffffffffffffffff16146106c0576040517f08c379a00000000000000000000000000000000000000000000000000000000081526004016106b7906120de565b60405180910390fd5b6106ca82826110f1565b5050565b6000806106d9610b29565b90506106fa8185856106eb8589610a38565b6106f5919061212d565b610b31565b600191505092915050565b600080610711836111d3565b905061076f818480602001906107279190612170565b8080601f016020809104026020016040519081016040528093929190818152602001838380828437600081840152601f19601f82011690508083019250505050505050611231565b915050919050565b6000804690508091505090565b60008060008373ffffffffffffffffffffffffffffffffffffffff1673ffffffffffffffffffffffffffffffffffffffff168152602001908152602001600020549050919050565b60006005600084815260200190815260200160002060000160008373ffffffffffffffffffffffffffffffffffffffff1673ffffffffffffffffffffffffffffffffffffffff16815260200190815260200160002060009054906101000a900460ff16905092915050565b6060600480546108469061203b565b80601f01602080910402602001604051908101604052809291908181526020018280546108729061203b565b80156108bf5780601f10610894576101008083540402835291602001916108bf565b820191906000526020600020905b8154815290600101906020018083116108a257829003601f168201915b5050505050905090565b6000801b81565b6000806108db610b29565b905060006108e98286610a38565b90508381101561092e576040517f08c379a000000000000000000000000000000000000000000000000000000000815260040161092590612245565b60405180910390fd5b61093b8286868403610b31565b60019250505092915050565b600080610952610b29565b905061095f818585610d86565b600191505092915050565b600061097582610705565b90506109a17f9f2df0fed2c77648de5860a4cc508cd0818c85b8b8a1ab4ceeef8d981c8956a6826107cc565b6109e0576040517f08c379a00000000000000000000000000000000000000000000000000000000081526004016109d7906122d7565b60405180910390fd5b6109ee838360000135611258565b505050565b7f9f2df0fed2c77648de5860a4cc508cd0818c85b8b8a1ab4ceeef8d981c8956a681565b610a2082610601565b610a2981610ffc565b610a3383836110f1565b505050565b6000600160008473ffffffffffffffffffffffffffffffffffffffff1673ffffffffffffffffffffffffffffffffffffffff16815260200190815260200160002060008373ffffffffffffffffffffffffffffffffffffffff1673ffffffffffffffffffffffffffffffffffffffff16815260200190815260200160002054905092915050565b60007f01ffc9a7000000000000000000000000000000000000000000000000000000007bffffffffffffffffffffffffffffffffffffffffffffffffffffffff1916827bffffffffffffffffffffffffffffffffffffffffffffffffffffffff1916149050919050565b600033905090565b600073ffffffffffffffffffffffffffffffffffffffff168373ffffffffffffffffffffffffffffffffffffffff1603610ba0576040517f08c379a0000000000000000000000000000000000000000000000000000000008152600401610b9790612369565b60405180910390fd5b600073ffffffffffffffffffffffffffffffffffffffff168273ffffffffffffffffffffffffffffffffffffffff1603610c0f576040517f08c379a0000000000000000000000000000000000000000000000000000000008152600401610c06906123fb565b60405180910390fd5b80600160008573ffffffffffffffffffffffffffffffffffffffff1673ffffffffffffffffffffffffffffffffffffffff16815260200190815260200160002060008473ffffffffffffffffffffffffffffffffffffffff1673ffffffffffffffffffffffffffffffffffffffff168152602001908152602001600020819055508173ffffffffffffffffffffffffffffffffffffffff168373ffffffffffffffffffffffffffffffffffffffff167f8c5be1e5ebec7d5bd14f71427d1e84f3dd0314c0f7b2291e5b200ac8c7c3b92583604051610ced9190611d3a565b60405180910390a3505050565b6000610d068484610a38565b90507fffffffffffffffffffffffffffffffffffffffffffffffffffffffffffffffff8114610d805781811015610d72576040517f08c379a0000000000000000000000000000000000000000000000000000000008152600401610d6990612467565b60405180910390fd5b610d7f8484848403610b31565b5b50505050565b600073ffffffffffffffffffffffffffffffffffffffff168373ffffffffffffffffffffffffffffffffffffffff1603610df5576040517f08c379a0000000000000000000000000000000000000000000000000000000008152600401610dec906124f9565b60405180910390fd5b600073ffffffffffffffffffffffffffffffffffffffff168273ffffffffffffffffffffffffffffffffffffffff1603610e64576040517f08c379a0000000000000000000000000000000000000000000000000000000008152600401610e5b9061258b565b60405180910390fd5b610e6f8383836113ae565b60008060008573ffffffffffffffffffffffffffffffffffffffff1673ffffffffffffffffffffffffffffffffffffffff16815260200190815260200160002054905081811015610ef5576040517f08c379a0000000000000000000000000000000000000000000000000000000008152600401610eec9061261d565b60405180910390fd5b8181036000808673ffffffffffffffffffffffffffffffffffffffff1673ffffffffffffffffffffffffffffffffffffffff16815260200190815260200160002081905550816000808573ffffffffffffffffffffffffffffffffffffffff1673ffffffffffffffffffffffffffffffffffffffff168152602001908152602001600020600082825401925050819055508273ffffffffffffffffffffffffffffffffffffffff168473ffffffffffffffffffffffffffffffffffffffff167fddf252ad1be2c89b69c2b068fc378daa952ba7f163c4a11628f55a4df523b3ef84604051610fe39190611d3a565b60405180910390a3610ff68484846113b3565b50505050565b61100d81611008610b29565b6113b8565b50565b61101a82826107cc565b6110ed5760016005600084815260200190815260200160002060000160008373ffffffffffffffffffffffffffffffffffffffff1673ffffffffffffffffffffffffffffffffffffffff16815260200190815260200160002060006101000a81548160ff021916908315150217905550611092610b29565b73ffffffffffffffffffffffffffffffffffffffff168173ffffffffffffffffffffffffffffffffffffffff16837f2f8788117e7eff1d82e926ec794901d17c78024a50270940304540a733656f0d60405160405180910390a45b5050565b6110fb82826107cc565b156111cf5760006005600084815260200190815260200160002060000160008373ffffffffffffffffffffffffffffffffffffffff1673ffffffffffffffffffffffffffffffffffffffff16815260200190815260200160002060006101000a81548160ff021916908315150217905550611174610b29565b73ffffffffffffffffffffffffffffffffffffffff168173ffffffffffffffffffffffffffffffffffffffff16837ff6391f5c32d9c69d2a47ea670b442974b53935d1edc7fd64eb21e047a839171b60405160405180910390a45b5050565b600061122a7ffd328f2e841901499511b1c501a1cbfdcee0516b1d51c381d66ec9d3a59e9cad836000013560405160200161120f92919061263d565b6040516020818303038152906040528051906020012061143d565b9050919050565b60008060006112408585611457565b9150915061124d816114a8565b819250505092915050565b600073ffffffffffffffffffffffffffffffffffffffff168273ffffffffffffffffffffffffffffffffffffffff16036112c7576040517f08c379a00000000000000000000000000000000000000000000000000000000081526004016112be906126b2565b60405180910390fd5b6112d3600083836113ae565b80600260008282546112e5919061212d565b92505081905550806000808473ffffffffffffffffffffffffffffffffffffffff1673ffffffffffffffffffffffffffffffffffffffff168152602001908152602001600020600082825401925050819055508173ffffffffffffffffffffffffffffffffffffffff16600073ffffffffffffffffffffffffffffffffffffffff167fddf252ad1be2c89b69c2b068fc378daa952ba7f163c4a11628f55a4df523b3ef836040516113969190611d3a565b60405180910390a36113aa600083836113b3565b5050565b505050565b505050565b6113c282826107cc565b611439576113cf8161160e565b6113dd8360001c602061163b565b6040516020016113ee9291906127a6565b6040516020818303038152906040526040517f08c379a00000000000000000000000000000000000000000000000000000000081526004016114309190611c35565b60405180910390fd5b5050565b600061145061144a611877565b83611991565b9050919050565b60008060418351036114985760008060006020860151925060408601519150606086015160001a905061148c878285856119c4565b945094505050506114a1565b60006002915091505b9250929050565b600060048111156114bc576114bb6127e0565b5b8160048111156114cf576114ce6127e0565b5b031561160b57600160048111156114e9576114e86127e0565b5b8160048111156114fc576114fb6127e0565b5b0361153c576040517f08c379a00000000000000000000000000000000000000000000000000000000081526004016115339061285b565b60405180910390fd5b600260048111156115505761154f6127e0565b5b816004811115611563576115626127e0565b5b036115a3576040517f08c379a000000000000000000000000000000000000000000000000000000000815260040161159a906128c7565b60405180910390fd5b600360048111156115b7576115b66127e0565b5b8160048111156115ca576115c96127e0565b5b0361160a576040517f08c379a000000000000000000000000000000000000000000000000000000000815260040161160190612959565b60405180910390fd5b5b50565b60606116348273ffffffffffffffffffffffffffffffffffffffff16601460ff1661163b565b9050919050565b60606000600283600261164e9190612979565b611658919061212d565b67ffffffffffffffff811115611671576116706129bb565b5b6040519080825280601f01601f1916602001820160405280156116a35781602001600182028036833780820191505090505b5090507f3000000000000000000000000000000000000000000000000000000000000000816000815181106116db576116da6129ea565b5b60200101907effffffffffffffffffffffffffffffffffffffffffffffffffffffffffffff1916908160001a9053507f78000000000000000000000000000000000000000000000000000000000000008160018151811061173f5761173e6129ea565b5b60200101907effffffffffffffffffffffffffffffffffffffffffffffffffffffffffffff1916908160001a9053506000600184600261177f9190612979565b611789919061212d565b90505b6001811115611829577f3031323334353637383961626364656600000000000000000000000000000000600f8616601081106117cb576117ca6129ea565b5b1a60f81b8282815181106117e2576117e16129ea565b5b60200101907effffffffffffffffffffffffffffffffffffffffffffffffffffffffffffff1916908160001a905350600485901c94508061182290612a19565b905061178c565b506000841461186d576040517f08c379a000000000000000000000000000000000000000000000000000000000815260040161186490612a8e565b60405180910390fd5b8091505092915050565b60007f000000000000000000000000000000000000000000000000000000000000000073ffffffffffffffffffffffffffffffffffffffff163073ffffffffffffffffffffffffffffffffffffffff161480156118f357507f000000000000000000000000000000000000000000000000000000000000000046145b15611920577f0000000000000000000000000000000000000000000000000000000000000000905061198e565b61198b7f00000000000000000000000000000000000000000000000000000000000000007f00000000000000000000000000000000000000000000000000000000000000007f0000000000000000000000000000000000000000000000000000000000000000611aa6565b90505b90565b600082826040516020016119a6929190612b1b565b60405160208183030381529060405280519060200120905092915050565b6000807f7fffffffffffffffffffffffffffffff5d576e7357a4501ddfe92f46681b20a08360001c11156119ff576000600391509150611a9d565b600060018787878760405160008152602001604052604051611a249493929190612b52565b6020604051602081039080840390855afa158015611a46573d6000803e3d6000fd5b505050602060405103519050600073ffffffffffffffffffffffffffffffffffffffff168173ffffffffffffffffffffffffffffffffffffffff1603611a9457600060019250925050611a9d565b80600092509250505b94509492505050565b60008383834630604051602001611ac1959493929190612b97565b6040516020818303038152906040528051906020012090509392505050565b600080fd5b600080fd5b60007fffffffff0000000000000000000000000000000000000000000000000000000082169050919050565b611b1f81611aea565b8114611b2a57600080fd5b50565b600081359050611b3c81611b16565b92915050565b600060208284031215611b5857611b57611ae0565b5b6000611b6684828501611b2d565b91505092915050565b60008115159050919050565b611b8481611b6f565b82525050565b6000602082019050611b9f6000830184611b7b565b92915050565b600081519050919050565b600082825260208201905092915050565b60005b83811015611bdf578082015181840152602081019050611bc4565b60008484015250505050565b6000601f19601f8301169050919050565b6000611c0782611ba5565b611c118185611bb0565b9350611c21818560208601611bc1565b611c2a81611beb565b840191505092915050565b60006020820190508181036000830152611c4f8184611bfc565b905092915050565b600073ffffffffffffffffffffffffffffffffffffffff82169050919050565b6000611c8282611c57565b9050919050565b611c9281611c77565b8114611c9d57600080fd5b50565b600081359050611caf81611c89565b92915050565b6000819050919050565b611cc881611cb5565b8114611cd357600080fd5b50565b600081359050611ce581611cbf565b92915050565b60008060408385031215611d0257611d01611ae0565b5b6000611d1085828601611ca0565b9250506020611d2185828601611cd6565b9150509250929050565b611d3481611cb5565b82525050565b6000602082019050611d4f6000830184611d2b565b92915050565b600080600060608486031215611d6e57611d6d611ae0565b5b6000611d7c86828701611ca0565b9350506020611d8d86828701611ca0565b9250506040611d9e86828701611cd6565b9150509250925092565b6000819050919050565b611dbb81611da8565b8114611dc657600080fd5b50565b600081359050611dd881611db2565b92915050565b600060208284031215611df457611df3611ae0565b5b6000611e0284828501611dc9565b91505092915050565b611e1481611da8565b82525050565b6000602082019050611e2f6000830184611e0b565b92915050565b60008060408385031215611e4c57611e4b611ae0565b5b6000611e5a85828601611dc9565b9250506020611e6b85828601611ca0565b9150509250929050565b600060ff82169050919050565b611e8b81611e75565b82525050565b6000602082019050611ea66000830184611e82565b92915050565b600080fd5b600060408284031215611ec757611ec6611eac565b5b81905092915050565b600060208284031215611ee657611ee5611ae0565b5b600082013567ffffffffffffffff811115611f0457611f03611ae5565b5b611f1084828501611eb1565b91505092915050565b611f2281611c77565b82525050565b6000602082019050611f3d6000830184611f19565b92915050565b600060208284031215611f5957611f58611ae0565b5b6000611f6784828501611ca0565b91505092915050565b60008060408385031215611f8757611f86611ae0565b5b6000611f9585828601611ca0565b925050602083013567ffffffffffffffff811115611fb657611fb5611ae5565b5b611fc285828601611eb1565b9150509250929050565b60008060408385031215611fe357611fe2611ae0565b5b6000611ff185828601611ca0565b925050602061200285828601611ca0565b9150509250929050565b7f4e487b7100000000000000000000000000000000000000000000000000000000600052602260045260246000fd5b6000600282049050600182168061205357607f821691505b6020821081036120665761206561200c565b5b50919050565b7f416363657373436f6e74726f6c3a2063616e206f6e6c792072656e6f756e636560008201527f20726f6c657320666f722073656c660000000000000000000000000000000000602082015250565b60006120c8602f83611bb0565b91506120d38261206c565b604082019050919050565b600060208201905081810360008301526120f7816120bb565b9050919050565b7f4e487b7100000000000000000000000000000000000000000000000000000000600052601160045260246000fd5b600061213882611cb5565b915061214383611cb5565b925082820190508082111561215b5761215a6120fe565b5b92915050565b600080fd5b600080fd5b600080fd5b6000808335600160200384360303811261218d5761218c612161565b5b80840192508235915067ffffffffffffffff8211156121af576121ae612166565b5b6020830192506001820236038313156121cb576121ca61216b565b5b509250929050565b7f45524332303a2064656372656173656420616c6c6f77616e63652062656c6f7760008201527f207a65726f000000000000000000000000000000000000000000000000000000602082015250565b600061222f602583611bb0565b915061223a826121d3565b604082019050919050565b6000602082019050818103600083015261225e81612222565b9050919050565b7f5369676e617475726520696e76616c6964206f7220756e617574686f72697a6560008201527f6400000000000000000000000000000000000000000000000000000000000000602082015250565b60006122c1602183611bb0565b91506122cc82612265565b604082019050919050565b600060208201905081810360008301526122f0816122b4565b9050919050565b7f45524332303a20617070726f76652066726f6d20746865207a65726f2061646460008201527f7265737300000000000000000000000000000000000000000000000000000000602082015250565b6000612353602483611bb0565b915061235e826122f7565b604082019050919050565b6000602082019050818103600083015261238281612346565b9050919050565b7f45524332303a20617070726f766520746f20746865207a65726f20616464726560008201527f7373000000000000000000000000000000000000000000000000000000000000602082015250565b60006123e5602283611bb0565b91506123f082612389565b604082019050919050565b60006020820190508181036000830152612414816123d8565b9050919050565b7f45524332303a20696e73756666696369656e7420616c6c6f77616e6365000000600082015250565b6000612451601d83611bb0565b915061245c8261241b565b602082019050919050565b6000602082019050818103600083015261248081612444565b9050919050565b7f45524332303a207472616e736665722066726f6d20746865207a65726f20616460008201527f6472657373000000000000000000000000000000000000000000000000000000602082015250565b60006124e3602583611bb0565b91506124ee82612487565b604082019050919050565b60006020820190508181036000830152612512816124d6565b9050919050565b7f45524332303a207472616e7366657220746f20746865207a65726f206164647260008201527f6573730000000000000000000000000000000000000000000000000000000000602082015250565b6000612575602383611bb0565b915061258082612519565b604082019050919050565b600060208201905081810360008301526125a481612568565b9050919050565b7f45524332303a207472616e7366657220616d6f756e742065786365656473206260008201527f616c616e63650000000000000000000000000000000000000000000000000000602082015250565b6000612607602683611bb0565b9150612612826125ab565b604082019050919050565b60006020820190508181036000830152612636816125fa565b9050919050565b60006040820190506126526000830185611e0b565b61265f6020830184611d2b565b9392505050565b7f45524332303a206d696e7420746f20746865207a65726f206164647265737300600082015250565b600061269c601f83611bb0565b91506126a782612666565b602082019050919050565b600060208201905081810360008301526126cb8161268f565b9050919050565b600081905092915050565b7f416363657373436f6e74726f6c3a206163636f756e7420000000000000000000600082015250565b60006127136017836126d2565b915061271e826126dd565b601782019050919050565b600061273482611ba5565b61273e81856126d2565b935061274e818560208601611bc1565b80840191505092915050565b7f206973206d697373696e6720726f6c6520000000000000000000000000000000600082015250565b60006127906011836126d2565b915061279b8261275a565b601182019050919050565b60006127b182612706565b91506127bd8285612729565b91506127c882612783565b91506127d48284612729565b91508190509392505050565b7f4e487b7100000000000000000000000000000000000000000000000000000000600052602160045260246000fd5b7f45434453413a20696e76616c6964207369676e61747572650000000000000000600082015250565b6000612845601883611bb0565b91506128508261280f565b602082019050919050565b6000602082019050818103600083015261287481612838565b9050919050565b7f45434453413a20696e76616c6964207369676e6174757265206c656e67746800600082015250565b60006128b1601f83611bb0565b91506128bc8261287b565b602082019050919050565b600060208201905081810360008301526128e0816128a4565b9050919050565b7f45434453413a20696e76616c6964207369676e6174757265202773272076616c60008201527f7565000000000000000000000000000000000000000000000000000000000000602082015250565b6000612943602283611bb0565b915061294e826128e7565b604082019050919050565b6000602082019050818103600083015261297281612936565b9050919050565b600061298482611cb5565b915061298f83611cb5565b925082820261299d81611cb5565b915082820484148315176129b4576129b36120fe565b5b5092915050565b7f4e487b7100000000000000000000000000000000000000000000000000000000600052604160045260246000fd5b7f4e487b7100000000000000000000000000000000000000000000000000000000600052603260045260246000fd5b6000612a2482611cb5565b915060008203612a3757612a366120fe565b5b600182039050919050565b7f537472696e67733a20686578206c656e67746820696e73756666696369656e74600082015250565b6000612a78602083611bb0565b9150612a8382612a42565b602082019050919050565b60006020820190508181036000830152612aa781612a6b565b9050919050565b7f1901000000000000000000000000000000000000000000000000000000000000600082015250565b6000612ae46002836126d2565b9150612aef82612aae565b600282019050919050565b6000819050919050565b612b15612b1082611da8565b612afa565b82525050565b6000612b2682612ad7565b9150612b328285612b04565b602082019150612b428284612b04565b6020820191508190509392505050565b6000608082019050612b676000830187611e0b565b612b746020830186611e82565b612b816040830185611e0b565b612b8e6060830184611e0b565b95945050505050565b600060a082019050612bac6000830188611e0b565b612bb96020830187611e0b565b612bc66040830186611e0b565b612bd36060830185611d2b565b612be06080830184611f19565b969550505050505056fea264697066735822122050731f21cee9fd3e2bfeb49063d62e0adae7669211848aae611823a6cc64b6d364736f6c63430008130033",
  "linkReferences": {},
  "deployedLinkReferences": {}
}