{
  "_format": "hh-sol-artifact-1",
  "contractName": "Alice",
  "sourceName": "contracts/Alice.sol",
  "abi": [
    {
      "inputs": [
        {
          "internalType": "address",
          "name": "minter",
          "type": "address"
        }
      ],
      "stateMutability": "nonpayable",
      "type": "constructor"
    },
    {
      "anonymous": false,
      "inputs": [
        {
          "indexed": true,
          "internalType": "address",
          "name": "owner",
          "type": "address"
        },
        {
          "indexed": true,
          "internalType": "address",
          "name": "spender",
          "type": "address"
        },
        {
          "indexed": false,
          "internalType": "uint256",
          "name": "value",
          "type": "uint256"
        }
      ],
      "name": "Approval",
      "type": "event"
    },
    {
      "anonymous": false,
      "inputs": [
        {
          "indexed": true,
          "internalType": "address",
          "name": "previousOwner",
          "type": "address"
        },
        {
          "indexed": true,
          "internalType": "address",
          "name": "newOwner",
          "type": "address"
        }
      ],
      "name": "OwnershipTransferred",
      "type": "event"
    },
    {
      "anonymous": false,
      "inputs": [
        {
          "indexed": false,
          "internalType": "address",
          "name": "account",
          "type": "address"
        }
      ],
      "name": "Paused",
      "type": "event"
    },
    {
      "anonymous": false,
      "inputs": [
        {
          "indexed": true,
          "internalType": "bytes32",
          "name": "role",
          "type": "bytes32"
        },
        {
          "indexed": true,
          "internalType": "bytes32",
          "name": "previousAdminRole",
          "type": "bytes32"
        },
        {
          "indexed": true,
          "internalType": "bytes32",
          "name": "newAdminRole",
          "type": "bytes32"
        }
      ],
      "name": "RoleAdminChanged",
      "type": "event"
    },
    {
      "anonymous": false,
      "inputs": [
        {
          "indexed": true,
          "internalType": "bytes32",
          "name": "role",
          "type": "bytes32"
        },
        {
          "indexed": true,
          "internalType": "address",
          "name": "account",
          "type": "address"
        },
        {
          "indexed": true,
          "internalType": "address",
          "name": "sender",
          "type": "address"
        }
      ],
      "name": "RoleGranted",
      "type": "event"
    },
    {
      "anonymous": false,
      "inputs": [
        {
          "indexed": true,
          "internalType": "bytes32",
          "name": "role",
          "type": "bytes32"
        },
        {
          "indexed": true,
          "internalType": "address",
          "name": "account",
          "type": "address"
        },
        {
          "indexed": true,
          "internalType": "address",
          "name": "sender",
          "type": "address"
        }
      ],
      "name": "RoleRevoked",
      "type": "event"
    },
    {
      "anonymous": false,
      "inputs": [
        {
          "indexed": true,
          "internalType": "address",
          "name": "from",
          "type": "address"
        },
        {
          "indexed": true,
          "internalType": "address",
          "name": "to",
          "type": "address"
        },
        {
          "indexed": false,
          "internalType": "uint256",
          "name": "value",
          "type": "uint256"
        }
      ],
      "name": "Transfer",
      "type": "event"
    },
    {
      "anonymous": false,
      "inputs": [
        {
          "indexed": false,
          "internalType": "address",
          "name": "account",
          "type": "address"
        }
      ],
      "name": "Unpaused",
      "type": "event"
    },
    {
      "inputs": [],
      "name": "DEFAULT_ADMIN_ROLE",
      "outputs": [
        {
          "internalType": "bytes32",
          "name": "",
          "type": "bytes32"
        }
      ],
      "stateMutability": "view",
      "type": "function"
    },
    {
      "inputs": [],
      "name": "MINTER_ROLE",
      "outputs": [
        {
          "internalType": "bytes32",
          "name": "",
          "type": "bytes32"
        }
      ],
      "stateMutability": "view",
      "type": "function"
    },
    {
      "inputs": [
        {
          "components": [
            {
              "internalType": "uint256",
              "name": "amount",
              "type": "uint256"
            },
            {
              "internalType": "bytes",
              "name": "signature",
              "type": "bytes"
            }
          ],
          "internalType": "struct Alice.ALCVoucher",
          "name": "voucher",
          "type": "tuple"
        }
      ],
      "name": "_verify",
      "outputs": [
        {
          "internalType": "address",
          "name": "",
          "type": "address"
        }
      ],
      "stateMutability": "view",
      "type": "function"
    },
    {
      "inputs": [
        {
          "internalType": "address",
          "name": "owner",
          "type": "address"
        },
        {
          "internalType": "address",
          "name": "spender",
          "type": "address"
        }
      ],
      "name": "allowance",
      "outputs": [
        {
          "internalType": "uint256",
          "name": "",
          "type": "uint256"
        }
      ],
      "stateMutability": "view",
      "type": "function"
    },
    {
      "inputs": [
        {
          "internalType": "address",
          "name": "spender",
          "type": "address"
        },
        {
          "internalType": "uint256",
          "name": "amount",
          "type": "uint256"
        }
      ],
      "name": "approve",
      "outputs": [
        {
          "internalType": "bool",
          "name": "",
          "type": "bool"
        }
      ],
      "stateMutability": "nonpayable",
      "type": "function"
    },
    {
      "inputs": [
        {
          "internalType": "address",
          "name": "account",
          "type": "address"
        }
      ],
      "name": "balanceOf",
      "outputs": [
        {
          "internalType": "uint256",
          "name": "",
          "type": "uint256"
        }
      ],
      "stateMutability": "view",
      "type": "function"
    },
    {
      "inputs": [],
      "name": "decimals",
      "outputs": [
        {
          "internalType": "uint8",
          "name": "",
          "type": "uint8"
        }
      ],
      "stateMutability": "view",
      "type": "function"
    },
    {
      "inputs": [
        {
          "internalType": "address",
          "name": "spender",
          "type": "address"
        },
        {
          "internalType": "uint256",
          "name": "subtractedValue",
          "type": "uint256"
        }
      ],
      "name": "decreaseAllowance",
      "outputs": [
        {
          "internalType": "bool",
          "name": "",
          "type": "bool"
        }
      ],
      "stateMutability": "nonpayable",
      "type": "function"
    },
    {
      "inputs": [],
      "name": "getChainID",
      "outputs": [
        {
          "internalType": "uint256",
          "name": "",
          "type": "uint256"
        }
      ],
      "stateMutability": "view",
      "type": "function"
    },
    {
      "inputs": [
        {
          "internalType": "bytes32",
          "name": "role",
          "type": "bytes32"
        }
      ],
      "name": "getRoleAdmin",
      "outputs": [
        {
          "internalType": "bytes32",
          "name": "",
          "type": "bytes32"
        }
      ],
      "stateMutability": "view",
      "type": "function"
    },
    {
      "inputs": [
        {
          "internalType": "bytes32",
          "name": "role",
          "type": "bytes32"
        },
        {
          "internalType": "address",
          "name": "account",
          "type": "address"
        }
      ],
      "name": "grantRole",
      "outputs": [],
      "stateMutability": "nonpayable",
      "type": "function"
    },
    {
      "inputs": [
        {
          "internalType": "bytes32",
          "name": "role",
          "type": "bytes32"
        },
        {
          "internalType": "address",
          "name": "account",
          "type": "address"
        }
      ],
      "name": "hasRole",
      "outputs": [
        {
          "internalType": "bool",
          "name": "",
          "type": "bool"
        }
      ],
      "stateMutability": "view",
      "type": "function"
    },
    {
      "inputs": [
        {
          "internalType": "address",
          "name": "spender",
          "type": "address"
        },
        {
          "internalType": "uint256",
          "name": "addedValue",
          "type": "uint256"
        }
      ],
      "name": "increaseAllowance",
      "outputs": [
        {
          "internalType": "bool",
          "name": "",
          "type": "bool"
        }
      ],
      "stateMutability": "nonpayable",
      "type": "function"
    },
    {
      "inputs": [],
      "name": "name",
      "outputs": [
        {
          "internalType": "string",
          "name": "",
          "type": "string"
        }
      ],
      "stateMutability": "view",
      "type": "function"
    },
    {
      "inputs": [],
      "name": "owner",
      "outputs": [
        {
          "internalType": "address",
          "name": "",
          "type": "address"
        }
      ],
      "stateMutability": "view",
      "type": "function"
    },
    {
      "inputs": [],
      "name": "pause",
      "outputs": [],
      "stateMutability": "nonpayable",
      "type": "function"
    },
    {
      "inputs": [],
      "name": "paused",
      "outputs": [
        {
          "internalType": "bool",
          "name": "",
          "type": "bool"
        }
      ],
      "stateMutability": "view",
      "type": "function"
    },
    {
      "inputs": [
        {
          "internalType": "address",
          "name": "redeemer",
          "type": "address"
        },
        {
          "components": [
            {
              "internalType": "uint256",
              "name": "amount",
              "type": "uint256"
            },
            {
              "internalType": "bytes",
              "name": "signature",
              "type": "bytes"
            }
          ],
          "internalType": "struct Alice.ALCVoucher",
          "name": "voucher",
          "type": "tuple"
        }
      ],
      "name": "redeem",
      "outputs": [],
      "stateMutability": "nonpayable",
      "type": "function"
    },
    {
      "inputs": [],
      "name": "renounceOwnership",
      "outputs": [],
      "stateMutability": "nonpayable",
      "type": "function"
    },
    {
      "inputs": [
        {
          "internalType": "bytes32",
          "name": "role",
          "type": "bytes32"
        },
        {
          "internalType": "address",
          "name": "account",
          "type": "address"
        }
      ],
      "name": "renounceRole",
      "outputs": [],
      "stateMutability": "nonpayable",
      "type": "function"
    },
    {
      "inputs": [
        {
          "internalType": "bytes32",
          "name": "role",
          "type": "bytes32"
        },
        {
          "internalType": "address",
          "name": "account",
          "type": "address"
        }
      ],
      "name": "revokeRole",
      "outputs": [],
      "stateMutability": "nonpayable",
      "type": "function"
    },
    {
      "inputs": [
        {
          "internalType": "bytes4",
          "name": "interfaceId",
          "type": "bytes4"
        }
      ],
      "name": "supportsInterface",
      "outputs": [
        {
          "internalType": "bool",
          "name": "",
          "type": "bool"
        }
      ],
      "stateMutability": "view",
      "type": "function"
    },
    {
      "inputs": [],
      "name": "symbol",
      "outputs": [
        {
          "internalType": "string",
          "name": "",
          "type": "string"
        }
      ],
      "stateMutability": "view",
      "type": "function"
    },
    {
      "inputs": [],
      "name": "totalSupply",
      "outputs": [
        {
          "internalType": "uint256",
          "name": "",
          "type": "uint256"
        }
      ],
      "stateMutability": "view",
      "type": "function"
    },
    {
      "inputs": [
        {
          "internalType": "address",
          "name": "to",
          "type": "address"
        },
        {
          "internalType": "uint256",
          "name": "amount",
          "type": "uint256"
        }
      ],
      "name": "transfer",
      "outputs": [
        {
          "internalType": "bool",
          "name": "",
          "type": "bool"
        }
      ],
      "stateMutability": "nonpayable",
      "type": "function"
    },
    {
      "inputs": [
        {
          "internalType": "address",
          "name": "from",
          "type": "address"
        },
        {
          "internalType": "address",
          "name": "to",
          "type": "address"
        },
        {
          "internalType": "uint256",
          "name": "amount",
          "type": "uint256"
        }
      ],
      "name": "transferFrom",
      "outputs": [
        {
          "internalType": "bool",
          "name": "",
          "type": "bool"
        }
      ],
      "stateMutability": "nonpayable",
      "type": "function"
    },
    {
      "inputs": [
        {
          "internalType": "address",
          "name": "newOwner",
          "type": "address"
        }
      ],
      "name": "transferOwnership",
      "outputs": [],
      "stateMutability": "nonpayable",
      "type": "function"
    },
    {
      "inputs": [],
      "name": "unpause",
      "outputs": [],
      "stateMutability": "nonpayable",
      "type": "function"
    }
  ],
  "bytecode": "0x6101406040523480156200001257600080fd5b5060405162003c6738038062003c67833981810160405281019062000038919062000543565b6040518060400160405280600d81526020017f416c6963652d566f7563686572000000000000000000000000000000000000008152506040518060400160405280600181526020017f31000000000000000000000000000000000000000000000000000000000000008152506040518060400160405280600581526020017f416c6963650000000000000000000000000000000000000000000000000000008152506040518060400160405280600381526020017f414c4300000000000000000000000000000000000000000000000000000000008152508160039081620001219190620007ef565b508060049081620001339190620007ef565b50505060008280519060200120905060008280519060200120905060007f8b73c3c69bb8fe3d512ecc4cf759cc79239f7b179b0ffacaa9a75d522b39400f90508260e081815250508161010081815250504660a081815250506200019f8184846200025c60201b60201c565b608081815250503073ffffffffffffffffffffffffffffffffffffffff1660c08173ffffffffffffffffffffffffffffffffffffffff168152505080610120818152505050505050506000600660006101000a81548160ff02191690831515021790555062000223620002176200029860201b60201c565b620002a060201b60201c565b620002557f9f2df0fed2c77648de5860a4cc508cd0818c85b8b8a1ab4ceeef8d981c8956a6826200036660201b60201c565b5062000970565b600083838346306040516020016200027995949392919062000913565b6040516020818303038152906040528051906020012090509392505050565b600033905090565b6000600660019054906101000a900473ffffffffffffffffffffffffffffffffffffffff16905081600660016101000a81548173ffffffffffffffffffffffffffffffffffffffff021916908373ffffffffffffffffffffffffffffffffffffffff1602179055508173ffffffffffffffffffffffffffffffffffffffff168173ffffffffffffffffffffffffffffffffffffffff167f8be0079c531659141344cd1fd0a4f28419497f9722a3daafe3b4186f6b6457e060405160405180910390a35050565b6200037882826200037c60201b60201c565b5050565b6200038e82826200046e60201b60201c565b6200046a5760016005600084815260200190815260200160002060000160008373ffffffffffffffffffffffffffffffffffffffff1673ffffffffffffffffffffffffffffffffffffffff16815260200190815260200160002060006101000a81548160ff0219169083151502179055506200040f6200029860201b60201c565b73ffffffffffffffffffffffffffffffffffffffff168173ffffffffffffffffffffffffffffffffffffffff16837f2f8788117e7eff1d82e926ec794901d17c78024a50270940304540a733656f0d60405160405180910390a45b5050565b60006005600084815260200190815260200160002060000160008373ffffffffffffffffffffffffffffffffffffffff1673ffffffffffffffffffffffffffffffffffffffff16815260200190815260200160002060009054906101000a900460ff16905092915050565b600080fd5b600073ffffffffffffffffffffffffffffffffffffffff82169050919050565b60006200050b82620004de565b9050919050565b6200051d81620004fe565b81146200052957600080fd5b50565b6000815190506200053d8162000512565b92915050565b6000602082840312156200055c576200055b620004d9565b5b60006200056c848285016200052c565b91505092915050565b600081519050919050565b7f4e487b7100000000000000000000000000000000000000000000000000000000600052604160045260246000fd5b7f4e487b7100000000000000000000000000000000000000000000000000000000600052602260045260246000fd5b60006002820490506001821680620005f757607f821691505b6020821081036200060d576200060c620005af565b5b50919050565b60008190508160005260206000209050919050565b60006020601f8301049050919050565b600082821b905092915050565b600060088302620006777fffffffffffffffffffffffffffffffffffffffffffffffffffffffffffffffff8262000638565b62000683868362000638565b95508019841693508086168417925050509392505050565b6000819050919050565b6000819050919050565b6000620006d0620006ca620006c4846200069b565b620006a5565b6200069b565b9050919050565b6000819050919050565b620006ec83620006af565b62000704620006fb82620006d7565b84845462000645565b825550505050565b600090565b6200071b6200070c565b62000728818484620006e1565b505050565b5b8181101562000750576200074460008262000711565b6001810190506200072e565b5050565b601f8211156200079f57620007698162000613565b620007748462000628565b8101602085101562000784578190505b6200079c620007938562000628565b8301826200072d565b50505b505050565b600082821c905092915050565b6000620007c460001984600802620007a4565b1980831691505092915050565b6000620007df8383620007b1565b9150826002028217905092915050565b620007fa8262000575565b67ffffffffffffffff81111562000816576200081562000580565b5b620008228254620005de565b6200082f82828562000754565b600060209050601f83116001811462000867576000841562000852578287015190505b6200085e8582620007d1565b865550620008ce565b601f198416620008778662000613565b60005b82811015620008a1578489015182556001820191506020850194506020810190506200087a565b86831015620008c15784890151620008bd601f891682620007b1565b8355505b6001600288020188555050505b505050505050565b6000819050919050565b620008eb81620008d6565b82525050565b620008fc816200069b565b82525050565b6200090d81620004fe565b82525050565b600060a0820190506200092a6000830188620008e0565b620009396020830187620008e0565b620009486040830186620008e0565b620009576060830185620008f1565b62000966608083018462000902565b9695505050505050565b60805160a05160c05160e05161010051610120516132a7620009c06000396000611dd601526000611e1801526000611df701526000611d2c01526000611d8201526000611dab01526132a76000f3fe608060405234801561001057600080fd5b50600436106101c45760003560e01c806370a08231116100f9578063a457c2d711610097578063d539139311610071578063d53913931461050b578063d547741f14610529578063dd62ed3e14610545578063f2fde38b14610575576101c4565b8063a457c2d71461048f578063a9059cbb146104bf578063c215f5d2146104ef576101c4565b80638da5cb5b116100d35780638da5cb5b1461040557806391d148541461042357806395d89b4114610453578063a217fddf14610471576101c4565b806370a08231146103c1578063715018a6146103f15780638456cb59146103fb576101c4565b8063313ce567116101665780633f4ba83a116101405780633f4ba83a1461034b57806354d182c014610355578063564b81ef146103855780635c975abb146103a3576101c4565b8063313ce567146102e157806336568abe146102ff578063395093511461031b576101c4565b806318160ddd116101a257806318160ddd1461024757806323b872dd14610265578063248a9ca3146102955780632f2ff15d146102c5576101c4565b806301ffc9a7146101c957806306fdde03146101f9578063095ea7b314610217575b600080fd5b6101e360048036038101906101de9190611ff3565b610591565b6040516101f0919061203b565b60405180910390f35b61020161060b565b60405161020e91906120e6565b60405180910390f35b610231600480360381019061022c919061219c565b61069d565b60405161023e919061203b565b60405180910390f35b61024f6106c0565b60405161025c91906121eb565b60405180910390f35b61027f600480360381019061027a9190612206565b6106ca565b60405161028c919061203b565b60405180910390f35b6102af60048036038101906102aa919061228f565b6106f9565b6040516102bc91906122cb565b60405180910390f35b6102df60048036038101906102da91906122e6565b610719565b005b6102e961073a565b6040516102f69190612342565b60405180910390f35b610319600480360381019061031491906122e6565b610743565b005b6103356004803603810190610330919061219c565b6107c6565b604051610342919061203b565b60405180910390f35b6103536107fd565b005b61036f600480360381019061036a9190612381565b61080f565b60405161037c91906123d9565b60405180910390f35b61038d610881565b60405161039a91906121eb565b60405180910390f35b6103ab61088e565b6040516103b8919061203b565b60405180910390f35b6103db60048036038101906103d691906123f4565b6108a5565b6040516103e891906121eb565b60405180910390f35b6103f96108ed565b005b610403610901565b005b61040d610913565b60405161041a91906123d9565b60405180910390f35b61043d600480360381019061043891906122e6565b61093d565b60405161044a919061203b565b60405180910390f35b61045b6109a8565b60405161046891906120e6565b60405180910390f35b610479610a3a565b60405161048691906122cb565b60405180910390f35b6104a960048036038101906104a4919061219c565b610a41565b6040516104b6919061203b565b60405180910390f35b6104d960048036038101906104d4919061219c565b610ab8565b6040516104e6919061203b565b60405180910390f35b61050960048036038101906105049190612421565b610adb565b005b610513610b6c565b60405161052091906122cb565b60405180910390f35b610543600480360381019061053e91906122e6565b610b90565b005b61055f600480360381019061055a919061247d565b610bb1565b60405161056c91906121eb565b60405180910390f35b61058f600480360381019061058a91906123f4565b610c38565b005b60007f7965db0b000000000000000000000000000000000000000000000000000000007bffffffffffffffffffffffffffffffffffffffffffffffffffffffff1916827bffffffffffffffffffffffffffffffffffffffffffffffffffffffff19161480610604575061060382610cbb565b5b9050919050565b60606003805461061a906124ec565b80601f0160208091040260200160405190810160405280929190818152602001828054610646906124ec565b80156106935780601f1061066857610100808354040283529160200191610693565b820191906000526020600020905b81548152906001019060200180831161067657829003601f168201915b5050505050905090565b6000806106a8610d25565b90506106b5818585610d2d565b600191505092915050565b6000600254905090565b6000806106d5610d25565b90506106e2858285610ef6565b6106ed858585610f82565b60019150509392505050565b600060056000838152602001908152602001600020600101549050919050565b610722826106f9565b61072b816111f8565b610735838361120c565b505050565b60006012905090565b61074b610d25565b73ffffffffffffffffffffffffffffffffffffffff168173ffffffffffffffffffffffffffffffffffffffff16146107b8576040517f08c379a00000000000000000000000000000000000000000000000000000000081526004016107af9061258f565b60405180910390fd5b6107c282826112ed565b5050565b6000806107d1610d25565b90506107f28185856107e38589610bb1565b6107ed91906125de565b610d2d565b600191505092915050565b6108056113cf565b61080d61144d565b565b60008061081b836114b0565b9050610879818480602001906108319190612621565b8080601f016020809104026020016040519081016040528093929190818152602001838380828437600081840152601f19601f8201169050808301925050505050505061150e565b915050919050565b6000804690508091505090565b6000600660009054906101000a900460ff16905090565b60008060008373ffffffffffffffffffffffffffffffffffffffff1673ffffffffffffffffffffffffffffffffffffffff168152602001908152602001600020549050919050565b6108f56113cf565b6108ff6000611535565b565b6109096113cf565b6109116115fb565b565b6000600660019054906101000a900473ffffffffffffffffffffffffffffffffffffffff16905090565b60006005600084815260200190815260200160002060000160008373ffffffffffffffffffffffffffffffffffffffff1673ffffffffffffffffffffffffffffffffffffffff16815260200190815260200160002060009054906101000a900460ff16905092915050565b6060600480546109b7906124ec565b80601f01602080910402602001604051908101604052809291908181526020018280546109e3906124ec565b8015610a305780601f10610a0557610100808354040283529160200191610a30565b820191906000526020600020905b815481529060010190602001808311610a1357829003601f168201915b5050505050905090565b6000801b81565b600080610a4c610d25565b90506000610a5a8286610bb1565b905083811015610a9f576040517f08c379a0000000000000000000000000000000000000000000000000000000008152600401610a96906126f6565b60405180910390fd5b610aac8286868403610d2d565b60019250505092915050565b600080610ac3610d25565b9050610ad0818585610f82565b600191505092915050565b610ae361165e565b6000610aee8261080f565b9050610b1a7f9f2df0fed2c77648de5860a4cc508cd0818c85b8b8a1ab4ceeef8d981c8956a68261093d565b610b59576040517f08c379a0000000000000000000000000000000000000000000000000000000008152600401610b5090612788565b60405180910390fd5b610b678383600001356116a8565b505050565b7f9f2df0fed2c77648de5860a4cc508cd0818c85b8b8a1ab4ceeef8d981c8956a681565b610b99826106f9565b610ba2816111f8565b610bac83836112ed565b505050565b6000600160008473ffffffffffffffffffffffffffffffffffffffff1673ffffffffffffffffffffffffffffffffffffffff16815260200190815260200160002060008373ffffffffffffffffffffffffffffffffffffffff1673ffffffffffffffffffffffffffffffffffffffff16815260200190815260200160002054905092915050565b610c406113cf565b600073ffffffffffffffffffffffffffffffffffffffff168173ffffffffffffffffffffffffffffffffffffffff1603610caf576040517f08c379a0000000000000000000000000000000000000000000000000000000008152600401610ca69061281a565b60405180910390fd5b610cb881611535565b50565b60007f01ffc9a7000000000000000000000000000000000000000000000000000000007bffffffffffffffffffffffffffffffffffffffffffffffffffffffff1916827bffffffffffffffffffffffffffffffffffffffffffffffffffffffff1916149050919050565b600033905090565b600073ffffffffffffffffffffffffffffffffffffffff168373ffffffffffffffffffffffffffffffffffffffff1603610d9c576040517f08c379a0000000000000000000000000000000000000000000000000000000008152600401610d93906128ac565b60405180910390fd5b600073ffffffffffffffffffffffffffffffffffffffff168273ffffffffffffffffffffffffffffffffffffffff1603610e0b576040517f08c379a0000000000000000000000000000000000000000000000000000000008152600401610e029061293e565b60405180910390fd5b80600160008573ffffffffffffffffffffffffffffffffffffffff1673ffffffffffffffffffffffffffffffffffffffff16815260200190815260200160002060008473ffffffffffffffffffffffffffffffffffffffff1673ffffffffffffffffffffffffffffffffffffffff168152602001908152602001600020819055508173ffffffffffffffffffffffffffffffffffffffff168373ffffffffffffffffffffffffffffffffffffffff167f8c5be1e5ebec7d5bd14f71427d1e84f3dd0314c0f7b2291e5b200ac8c7c3b92583604051610ee991906121eb565b60405180910390a3505050565b6000610f028484610bb1565b90507fffffffffffffffffffffffffffffffffffffffffffffffffffffffffffffffff8114610f7c5781811015610f6e576040517f08c379a0000000000000000000000000000000000000000000000000000000008152600401610f65906129aa565b60405180910390fd5b610f7b8484848403610d2d565b5b50505050565b600073ffffffffffffffffffffffffffffffffffffffff168373ffffffffffffffffffffffffffffffffffffffff1603610ff1576040517f08c379a0000000000000000000000000000000000000000000000000000000008152600401610fe890612a3c565b60405180910390fd5b600073ffffffffffffffffffffffffffffffffffffffff168273ffffffffffffffffffffffffffffffffffffffff1603611060576040517f08c379a000000000000000000000000000000000000000000000000000000000815260040161105790612ace565b60405180910390fd5b61106b8383836117fe565b60008060008573ffffffffffffffffffffffffffffffffffffffff1673ffffffffffffffffffffffffffffffffffffffff168152602001908152602001600020549050818110156110f1576040517f08c379a00000000000000000000000000000000000000000000000000000000081526004016110e890612b60565b60405180910390fd5b8181036000808673ffffffffffffffffffffffffffffffffffffffff1673ffffffffffffffffffffffffffffffffffffffff16815260200190815260200160002081905550816000808573ffffffffffffffffffffffffffffffffffffffff1673ffffffffffffffffffffffffffffffffffffffff168152602001908152602001600020600082825401925050819055508273ffffffffffffffffffffffffffffffffffffffff168473ffffffffffffffffffffffffffffffffffffffff167fddf252ad1be2c89b69c2b068fc378daa952ba7f163c4a11628f55a4df523b3ef846040516111df91906121eb565b60405180910390a36111f2848484611816565b50505050565b61120981611204610d25565b61181b565b50565b611216828261093d565b6112e95760016005600084815260200190815260200160002060000160008373ffffffffffffffffffffffffffffffffffffffff1673ffffffffffffffffffffffffffffffffffffffff16815260200190815260200160002060006101000a81548160ff02191690831515021790555061128e610d25565b73ffffffffffffffffffffffffffffffffffffffff168173ffffffffffffffffffffffffffffffffffffffff16837f2f8788117e7eff1d82e926ec794901d17c78024a50270940304540a733656f0d60405160405180910390a45b5050565b6112f7828261093d565b156113cb5760006005600084815260200190815260200160002060000160008373ffffffffffffffffffffffffffffffffffffffff1673ffffffffffffffffffffffffffffffffffffffff16815260200190815260200160002060006101000a81548160ff021916908315150217905550611370610d25565b73ffffffffffffffffffffffffffffffffffffffff168173ffffffffffffffffffffffffffffffffffffffff16837ff6391f5c32d9c69d2a47ea670b442974b53935d1edc7fd64eb21e047a839171b60405160405180910390a45b5050565b6113d7610d25565b73ffffffffffffffffffffffffffffffffffffffff166113f5610913565b73ffffffffffffffffffffffffffffffffffffffff161461144b576040517f08c379a000000000000000000000000000000000000000000000000000000000815260040161144290612bcc565b60405180910390fd5b565b6114556118a0565b6000600660006101000a81548160ff0219169083151502179055507f5db9ee0a495bf2e6ff9c91a7834c1ba4fdd244a5e8aa4e537bd38aeae4b073aa611499610d25565b6040516114a691906123d9565b60405180910390a1565b60006115077ffd328f2e841901499511b1c501a1cbfdcee0516b1d51c381d66ec9d3a59e9cad83600001356040516020016114ec929190612bec565b604051602081830303815290604052805190602001206118e9565b9050919050565b600080600061151d8585611903565b9150915061152a81611954565b819250505092915050565b6000600660019054906101000a900473ffffffffffffffffffffffffffffffffffffffff16905081600660016101000a81548173ffffffffffffffffffffffffffffffffffffffff021916908373ffffffffffffffffffffffffffffffffffffffff1602179055508173ffffffffffffffffffffffffffffffffffffffff168173ffffffffffffffffffffffffffffffffffffffff167f8be0079c531659141344cd1fd0a4f28419497f9722a3daafe3b4186f6b6457e060405160405180910390a35050565b61160361165e565b6001600660006101000a81548160ff0219169083151502179055507f62e78cea01bee320cd4e420270b5ea74000d11b0c9f74754ebdbfc544b05a258611647610d25565b60405161165491906123d9565b60405180910390a1565b61166661088e565b156116a6576040517f08c379a000000000000000000000000000000000000000000000000000000000815260040161169d90612c61565b60405180910390fd5b565b600073ffffffffffffffffffffffffffffffffffffffff168273ffffffffffffffffffffffffffffffffffffffff1603611717576040517f08c379a000000000000000000000000000000000000000000000000000000000815260040161170e90612ccd565b60405180910390fd5b611723600083836117fe565b806002600082825461173591906125de565b92505081905550806000808473ffffffffffffffffffffffffffffffffffffffff1673ffffffffffffffffffffffffffffffffffffffff168152602001908152602001600020600082825401925050819055508173ffffffffffffffffffffffffffffffffffffffff16600073ffffffffffffffffffffffffffffffffffffffff167fddf252ad1be2c89b69c2b068fc378daa952ba7f163c4a11628f55a4df523b3ef836040516117e691906121eb565b60405180910390a36117fa60008383611816565b5050565b61180661165e565b611811838383611aba565b505050565b505050565b611825828261093d565b61189c5761183281611abf565b6118408360001c6020611aec565b604051602001611851929190612dc1565b6040516020818303038152906040526040517f08c379a000000000000000000000000000000000000000000000000000000000815260040161189391906120e6565b60405180910390fd5b5050565b6118a861088e565b6118e7576040517f08c379a00000000000000000000000000000000000000000000000000000000081526004016118de90612e47565b60405180910390fd5b565b60006118fc6118f6611d28565b83611e42565b9050919050565b60008060418351036119445760008060006020860151925060408601519150606086015160001a905061193887828585611e75565b9450945050505061194d565b60006002915091505b9250929050565b6000600481111561196857611967612e67565b5b81600481111561197b5761197a612e67565b5b0315611ab7576001600481111561199557611994612e67565b5b8160048111156119a8576119a7612e67565b5b036119e8576040517f08c379a00000000000000000000000000000000000000000000000000000000081526004016119df90612ee2565b60405180910390fd5b600260048111156119fc576119fb612e67565b5b816004811115611a0f57611a0e612e67565b5b03611a4f576040517f08c379a0000000000000000000000000000000000000000000000000000000008152600401611a4690612f4e565b60405180910390fd5b60036004811115611a6357611a62612e67565b5b816004811115611a7657611a75612e67565b5b03611ab6576040517f08c379a0000000000000000000000000000000000000000000000000000000008152600401611aad90612fe0565b60405180910390fd5b5b50565b505050565b6060611ae58273ffffffffffffffffffffffffffffffffffffffff16601460ff16611aec565b9050919050565b606060006002836002611aff9190613000565b611b0991906125de565b67ffffffffffffffff811115611b2257611b21613042565b5b6040519080825280601f01601f191660200182016040528015611b545781602001600182028036833780820191505090505b5090507f300000000000000000000000000000000000000000000000000000000000000081600081518110611b8c57611b8b613071565b5b60200101907effffffffffffffffffffffffffffffffffffffffffffffffffffffffffffff1916908160001a9053507f780000000000000000000000000000000000000000000000000000000000000081600181518110611bf057611bef613071565b5b60200101907effffffffffffffffffffffffffffffffffffffffffffffffffffffffffffff1916908160001a90535060006001846002611c309190613000565b611c3a91906125de565b90505b6001811115611cda577f3031323334353637383961626364656600000000000000000000000000000000600f861660108110611c7c57611c7b613071565b5b1a60f81b828281518110611c9357611c92613071565b5b60200101907effffffffffffffffffffffffffffffffffffffffffffffffffffffffffffff1916908160001a905350600485901c945080611cd3906130a0565b9050611c3d565b5060008414611d1e576040517f08c379a0000000000000000000000000000000000000000000000000000000008152600401611d1590613115565b60405180910390fd5b8091505092915050565b60007f000000000000000000000000000000000000000000000000000000000000000073ffffffffffffffffffffffffffffffffffffffff163073ffffffffffffffffffffffffffffffffffffffff16148015611da457507f000000000000000000000000000000000000000000000000000000000000000046145b15611dd1577f00000000000000000000000000000000000000000000000000000000000000009050611e3f565b611e3c7f00000000000000000000000000000000000000000000000000000000000000007f00000000000000000000000000000000000000000000000000000000000000007f0000000000000000000000000000000000000000000000000000000000000000611f57565b90505b90565b60008282604051602001611e579291906131a2565b60405160208183030381529060405280519060200120905092915050565b6000807f7fffffffffffffffffffffffffffffff5d576e7357a4501ddfe92f46681b20a08360001c1115611eb0576000600391509150611f4e565b600060018787878760405160008152602001604052604051611ed594939291906131d9565b6020604051602081039080840390855afa158015611ef7573d6000803e3d6000fd5b505050602060405103519050600073ffffffffffffffffffffffffffffffffffffffff168173ffffffffffffffffffffffffffffffffffffffff1603611f4557600060019250925050611f4e565b80600092509250505b94509492505050565b60008383834630604051602001611f7295949392919061321e565b6040516020818303038152906040528051906020012090509392505050565b600080fd5b600080fd5b60007fffffffff0000000000000000000000000000000000000000000000000000000082169050919050565b611fd081611f9b565b8114611fdb57600080fd5b50565b600081359050611fed81611fc7565b92915050565b60006020828403121561200957612008611f91565b5b600061201784828501611fde565b91505092915050565b60008115159050919050565b61203581612020565b82525050565b6000602082019050612050600083018461202c565b92915050565b600081519050919050565b600082825260208201905092915050565b60005b83811015612090578082015181840152602081019050612075565b60008484015250505050565b6000601f19601f8301169050919050565b60006120b882612056565b6120c28185612061565b93506120d2818560208601612072565b6120db8161209c565b840191505092915050565b6000602082019050818103600083015261210081846120ad565b905092915050565b600073ffffffffffffffffffffffffffffffffffffffff82169050919050565b600061213382612108565b9050919050565b61214381612128565b811461214e57600080fd5b50565b6000813590506121608161213a565b92915050565b6000819050919050565b61217981612166565b811461218457600080fd5b50565b60008135905061219681612170565b92915050565b600080604083850312156121b3576121b2611f91565b5b60006121c185828601612151565b92505060206121d285828601612187565b9150509250929050565b6121e581612166565b82525050565b600060208201905061220060008301846121dc565b92915050565b60008060006060848603121561221f5761221e611f91565b5b600061222d86828701612151565b935050602061223e86828701612151565b925050604061224f86828701612187565b9150509250925092565b6000819050919050565b61226c81612259565b811461227757600080fd5b50565b60008135905061228981612263565b92915050565b6000602082840312156122a5576122a4611f91565b5b60006122b38482850161227a565b91505092915050565b6122c581612259565b82525050565b60006020820190506122e060008301846122bc565b92915050565b600080604083850312156122fd576122fc611f91565b5b600061230b8582860161227a565b925050602061231c85828601612151565b9150509250929050565b600060ff82169050919050565b61233c81612326565b82525050565b60006020820190506123576000830184612333565b92915050565b600080fd5b6000604082840312156123785761237761235d565b5b81905092915050565b60006020828403121561239757612396611f91565b5b600082013567ffffffffffffffff8111156123b5576123b4611f96565b5b6123c184828501612362565b91505092915050565b6123d381612128565b82525050565b60006020820190506123ee60008301846123ca565b92915050565b60006020828403121561240a57612409611f91565b5b600061241884828501612151565b91505092915050565b6000806040838503121561243857612437611f91565b5b600061244685828601612151565b925050602083013567ffffffffffffffff81111561246757612466611f96565b5b61247385828601612362565b9150509250929050565b6000806040838503121561249457612493611f91565b5b60006124a285828601612151565b92505060206124b385828601612151565b9150509250929050565b7f4e487b7100000000000000000000000000000000000000000000000000000000600052602260045260246000fd5b6000600282049050600182168061250457607f821691505b602082108103612517576125166124bd565b5b50919050565b7f416363657373436f6e74726f6c3a2063616e206f6e6c792072656e6f756e636560008201527f20726f6c657320666f722073656c660000000000000000000000000000000000602082015250565b6000612579602f83612061565b91506125848261251d565b604082019050919050565b600060208201905081810360008301526125a88161256c565b9050919050565b7f4e487b7100000000000000000000000000000000000000000000000000000000600052601160045260246000fd5b60006125e982612166565b91506125f483612166565b925082820190508082111561260c5761260b6125af565b5b92915050565b600080fd5b600080fd5b600080fd5b6000808335600160200384360303811261263e5761263d612612565b5b80840192508235915067ffffffffffffffff8211156126605761265f612617565b5b60208301925060018202360383131561267c5761267b61261c565b5b509250929050565b7f45524332303a2064656372656173656420616c6c6f77616e63652062656c6f7760008201527f207a65726f000000000000000000000000000000000000000000000000000000602082015250565b60006126e0602583612061565b91506126eb82612684565b604082019050919050565b6000602082019050818103600083015261270f816126d3565b9050919050565b7f5369676e617475726520696e76616c6964206f7220756e617574686f72697a6560008201527f6400000000000000000000000000000000000000000000000000000000000000602082015250565b6000612772602183612061565b915061277d82612716565b604082019050919050565b600060208201905081810360008301526127a181612765565b9050919050565b7f4f776e61626c653a206e6577206f776e657220697320746865207a65726f206160008201527f6464726573730000000000000000000000000000000000000000000000000000602082015250565b6000612804602683612061565b915061280f826127a8565b604082019050919050565b60006020820190508181036000830152612833816127f7565b9050919050565b7f45524332303a20617070726f76652066726f6d20746865207a65726f2061646460008201527f7265737300000000000000000000000000000000000000000000000000000000602082015250565b6000612896602483612061565b91506128a18261283a565b604082019050919050565b600060208201905081810360008301526128c581612889565b9050919050565b7f45524332303a20617070726f766520746f20746865207a65726f20616464726560008201527f7373000000000000000000000000000000000000000000000000000000000000602082015250565b6000612928602283612061565b9150612933826128cc565b604082019050919050565b600060208201905081810360008301526129578161291b565b9050919050565b7f45524332303a20696e73756666696369656e7420616c6c6f77616e6365000000600082015250565b6000612994601d83612061565b915061299f8261295e565b602082019050919050565b600060208201905081810360008301526129c381612987565b9050919050565b7f45524332303a207472616e736665722066726f6d20746865207a65726f20616460008201527f6472657373000000000000000000000000000000000000000000000000000000602082015250565b6000612a26602583612061565b9150612a31826129ca565b604082019050919050565b60006020820190508181036000830152612a5581612a19565b9050919050565b7f45524332303a207472616e7366657220746f20746865207a65726f206164647260008201527f6573730000000000000000000000000000000000000000000000000000000000602082015250565b6000612ab8602383612061565b9150612ac382612a5c565b604082019050919050565b60006020820190508181036000830152612ae781612aab565b9050919050565b7f45524332303a207472616e7366657220616d6f756e742065786365656473206260008201527f616c616e63650000000000000000000000000000000000000000000000000000602082015250565b6000612b4a602683612061565b9150612b5582612aee565b604082019050919050565b60006020820190508181036000830152612b7981612b3d565b9050919050565b7f4f776e61626c653a2063616c6c6572206973206e6f7420746865206f776e6572600082015250565b6000612bb6602083612061565b9150612bc182612b80565b602082019050919050565b60006020820190508181036000830152612be581612ba9565b9050919050565b6000604082019050612c0160008301856122bc565b612c0e60208301846121dc565b9392505050565b7f5061757361626c653a2070617573656400000000000000000000000000000000600082015250565b6000612c4b601083612061565b9150612c5682612c15565b602082019050919050565b60006020820190508181036000830152612c7a81612c3e565b9050919050565b7f45524332303a206d696e7420746f20746865207a65726f206164647265737300600082015250565b6000612cb7601f83612061565b9150612cc282612c81565b602082019050919050565b60006020820190508181036000830152612ce681612caa565b9050919050565b600081905092915050565b7f416363657373436f6e74726f6c3a206163636f756e7420000000000000000000600082015250565b6000612d2e601783612ced565b9150612d3982612cf8565b601782019050919050565b6000612d4f82612056565b612d598185612ced565b9350612d69818560208601612072565b80840191505092915050565b7f206973206d697373696e6720726f6c6520000000000000000000000000000000600082015250565b6000612dab601183612ced565b9150612db682612d75565b601182019050919050565b6000612dcc82612d21565b9150612dd88285612d44565b9150612de382612d9e565b9150612def8284612d44565b91508190509392505050565b7f5061757361626c653a206e6f7420706175736564000000000000000000000000600082015250565b6000612e31601483612061565b9150612e3c82612dfb565b602082019050919050565b60006020820190508181036000830152612e6081612e24565b9050919050565b7f4e487b7100000000000000000000000000000000000000000000000000000000600052602160045260246000fd5b7f45434453413a20696e76616c6964207369676e61747572650000000000000000600082015250565b6000612ecc601883612061565b9150612ed782612e96565b602082019050919050565b60006020820190508181036000830152612efb81612ebf565b9050919050565b7f45434453413a20696e76616c6964207369676e6174757265206c656e67746800600082015250565b6000612f38601f83612061565b9150612f4382612f02565b602082019050919050565b60006020820190508181036000830152612f6781612f2b565b9050919050565b7f45434453413a20696e76616c6964207369676e6174757265202773272076616c60008201527f7565000000000000000000000000000000000000000000000000000000000000602082015250565b6000612fca602283612061565b9150612fd582612f6e565b604082019050919050565b60006020820190508181036000830152612ff981612fbd565b9050919050565b600061300b82612166565b915061301683612166565b925082820261302481612166565b9150828204841483151761303b5761303a6125af565b5b5092915050565b7f4e487b7100000000000000000000000000000000000000000000000000000000600052604160045260246000fd5b7f4e487b7100000000000000000000000000000000000000000000000000000000600052603260045260246000fd5b60006130ab82612166565b9150600082036130be576130bd6125af565b5b600182039050919050565b7f537472696e67733a20686578206c656e67746820696e73756666696369656e74600082015250565b60006130ff602083612061565b915061310a826130c9565b602082019050919050565b6000602082019050818103600083015261312e816130f2565b9050919050565b7f1901000000000000000000000000000000000000000000000000000000000000600082015250565b600061316b600283612ced565b915061317682613135565b600282019050919050565b6000819050919050565b61319c61319782612259565b613181565b82525050565b60006131ad8261315e565b91506131b9828561318b565b6020820191506131c9828461318b565b6020820191508190509392505050565b60006080820190506131ee60008301876122bc565b6131fb6020830186612333565b61320860408301856122bc565b61321560608301846122bc565b95945050505050565b600060a08201905061323360008301886122bc565b61324060208301876122bc565b61324d60408301866122bc565b61325a60608301856121dc565b61326760808301846123ca565b969550505050505056fea2646970667358221220aecd8723b6ed42cbac297b8d7824828b8d44ab42930fd74057bc7c355ed2033264736f6c63430008130033",
  "linkReferences": {},
  "deployedLinkReferences": {}
}