{
  "_format": "hh-sol-artifact-1",
  "contractName": "Mintmons",
  "sourceName": "contracts/Mintmons.sol",
  "abi": [
    {
      "inputs": [
        {
          "internalType": "address",
          "name": "minter",
          "type": "address"
        }
      ],
      "stateMutability": "nonpayable",
      "type": "constructor"
    },
    {
      "anonymous": false,
      "inputs": [
        {
          "indexed": true,
          "internalType": "address",
          "name": "owner",
          "type": "address"
        },
        {
          "indexed": true,
          "internalType": "address",
          "name": "approved",
          "type": "address"
        },
        {
          "indexed": true,
          "internalType": "uint256",
          "name": "tokenId",
          "type": "uint256"
        }
      ],
      "name": "Approval",
      "type": "event"
    },
    {
      "anonymous": false,
      "inputs": [
        {
          "indexed": true,
          "internalType": "address",
          "name": "owner",
          "type": "address"
        },
        {
          "indexed": true,
          "internalType": "address",
          "name": "operator",
          "type": "address"
        },
        {
          "indexed": false,
          "internalType": "bool",
          "name": "approved",
          "type": "bool"
        }
      ],
      "name": "ApprovalForAll",
      "type": "event"
    },
    {
      "anonymous": false,
      "inputs": [
        {
          "indexed": true,
          "internalType": "uint256",
          "name": "_tokenId",
          "type": "uint256"
        }
      ],
      "name": "MintmonMetadataUpdate",
      "type": "event"
    },
    {
      "anonymous": false,
      "inputs": [
        {
          "indexed": true,
          "internalType": "address",
          "name": "previousOwner",
          "type": "address"
        },
        {
          "indexed": true,
          "internalType": "address",
          "name": "newOwner",
          "type": "address"
        }
      ],
      "name": "OwnershipTransferred",
      "type": "event"
    },
    {
      "anonymous": false,
      "inputs": [
        {
          "indexed": true,
          "internalType": "bytes32",
          "name": "role",
          "type": "bytes32"
        },
        {
          "indexed": true,
          "internalType": "bytes32",
          "name": "previousAdminRole",
          "type": "bytes32"
        },
        {
          "indexed": true,
          "internalType": "bytes32",
          "name": "newAdminRole",
          "type": "bytes32"
        }
      ],
      "name": "RoleAdminChanged",
      "type": "event"
    },
    {
      "anonymous": false,
      "inputs": [
        {
          "indexed": true,
          "internalType": "bytes32",
          "name": "role",
          "type": "bytes32"
        },
        {
          "indexed": true,
          "internalType": "address",
          "name": "account",
          "type": "address"
        },
        {
          "indexed": true,
          "internalType": "address",
          "name": "sender",
          "type": "address"
        }
      ],
      "name": "RoleGranted",
      "type": "event"
    },
    {
      "anonymous": false,
      "inputs": [
        {
          "indexed": true,
          "internalType": "bytes32",
          "name": "role",
          "type": "bytes32"
        },
        {
          "indexed": true,
          "internalType": "address",
          "name": "account",
          "type": "address"
        },
        {
          "indexed": true,
          "internalType": "address",
          "name": "sender",
          "type": "address"
        }
      ],
      "name": "RoleRevoked",
      "type": "event"
    },
    {
      "anonymous": false,
      "inputs": [
        {
          "indexed": true,
          "internalType": "address",
          "name": "from",
          "type": "address"
        },
        {
          "indexed": true,
          "internalType": "address",
          "name": "to",
          "type": "address"
        },
        {
          "indexed": true,
          "internalType": "uint256",
          "name": "tokenId",
          "type": "uint256"
        }
      ],
      "name": "Transfer",
      "type": "event"
    },
    {
      "inputs": [],
      "name": "DEFAULT_ADMIN_ROLE",
      "outputs": [
        {
          "internalType": "bytes32",
          "name": "",
          "type": "bytes32"
        }
      ],
      "stateMutability": "view",
      "type": "function"
    },
    {
      "inputs": [],
      "name": "MINTER_ROLE",
      "outputs": [
        {
          "internalType": "bytes32",
          "name": "",
          "type": "bytes32"
        }
      ],
      "stateMutability": "view",
      "type": "function"
    },
    {
      "inputs": [
        {
          "components": [
            {
              "internalType": "uint256",
              "name": "tokenId",
              "type": "uint256"
            },
            {
              "internalType": "string",
              "name": "name",
              "type": "string"
            },
            {
              "internalType": "string",
              "name": "level",
              "type": "string"
            },
            {
              "internalType": "uint256",
              "name": "experience",
              "type": "uint256"
            },
            {
              "internalType": "string",
              "name": "image",
              "type": "string"
            },
            {
              "internalType": "string",
              "name": "tp",
              "type": "string"
            },
            {
              "internalType": "string",
              "name": "description",
              "type": "string"
            },
            {
              "internalType": "string",
              "name": "attack1",
              "type": "string"
            },
            {
              "internalType": "string",
              "name": "attack2",
              "type": "string"
            },
            {
              "internalType": "string",
              "name": "attack3",
              "type": "string"
            },
            {
              "internalType": "string",
              "name": "attack4",
              "type": "string"
            },
            {
              "internalType": "bytes",
              "name": "signature",
              "type": "bytes"
            }
          ],
          "internalType": "struct MintmonsUriStorage.NFTVoucher",
          "name": "voucher",
          "type": "tuple"
        }
      ],
      "name": "_verify",
      "outputs": [
        {
          "internalType": "address",
          "name": "",
          "type": "address"
        }
      ],
      "stateMutability": "view",
      "type": "function"
    },
    {
      "inputs": [
        {
          "internalType": "address",
          "name": "to",
          "type": "address"
        },
        {
          "internalType": "uint256",
          "name": "tokenId",
          "type": "uint256"
        }
      ],
      "name": "approve",
      "outputs": [],
      "stateMutability": "nonpayable",
      "type": "function"
    },
    {
      "inputs": [
        {
          "internalType": "address",
          "name": "owner",
          "type": "address"
        }
      ],
      "name": "balanceOf",
      "outputs": [
        {
          "internalType": "uint256",
          "name": "",
          "type": "uint256"
        }
      ],
      "stateMutability": "view",
      "type": "function"
    },
    {
      "inputs": [
        {
          "internalType": "uint256",
          "name": "tokenId",
          "type": "uint256"
        }
      ],
      "name": "getApproved",
      "outputs": [
        {
          "internalType": "address",
          "name": "",
          "type": "address"
        }
      ],
      "stateMutability": "view",
      "type": "function"
    },
    {
      "inputs": [],
      "name": "getChainID",
      "outputs": [
        {
          "internalType": "uint256",
          "name": "",
          "type": "uint256"
        }
      ],
      "stateMutability": "view",
      "type": "function"
    },
    {
      "inputs": [
        {
          "internalType": "bytes32",
          "name": "role",
          "type": "bytes32"
        }
      ],
      "name": "getRoleAdmin",
      "outputs": [
        {
          "internalType": "bytes32",
          "name": "",
          "type": "bytes32"
        }
      ],
      "stateMutability": "view",
      "type": "function"
    },
    {
      "inputs": [
        {
          "internalType": "bytes32",
          "name": "role",
          "type": "bytes32"
        },
        {
          "internalType": "address",
          "name": "account",
          "type": "address"
        }
      ],
      "name": "grantRole",
      "outputs": [],
      "stateMutability": "nonpayable",
      "type": "function"
    },
    {
      "inputs": [
        {
          "internalType": "bytes32",
          "name": "role",
          "type": "bytes32"
        },
        {
          "internalType": "address",
          "name": "account",
          "type": "address"
        }
      ],
      "name": "hasRole",
      "outputs": [
        {
          "internalType": "bool",
          "name": "",
          "type": "bool"
        }
      ],
      "stateMutability": "view",
      "type": "function"
    },
    {
      "inputs": [
        {
          "internalType": "address",
          "name": "owner",
          "type": "address"
        },
        {
          "internalType": "address",
          "name": "operator",
          "type": "address"
        }
      ],
      "name": "isApprovedForAll",
      "outputs": [
        {
          "internalType": "bool",
          "name": "",
          "type": "bool"
        }
      ],
      "stateMutability": "view",
      "type": "function"
    },
    {
      "inputs": [
        {
          "components": [
            {
              "internalType": "uint256",
              "name": "tokenId",
              "type": "uint256"
            },
            {
              "internalType": "string",
              "name": "name",
              "type": "string"
            },
            {
              "internalType": "string",
              "name": "level",
              "type": "string"
            },
            {
              "internalType": "uint256",
              "name": "experience",
              "type": "uint256"
            },
            {
              "internalType": "string",
              "name": "image",
              "type": "string"
            },
            {
              "internalType": "string",
              "name": "tp",
              "type": "string"
            },
            {
              "internalType": "string",
              "name": "description",
              "type": "string"
            },
            {
              "internalType": "string",
              "name": "attack1",
              "type": "string"
            },
            {
              "internalType": "string",
              "name": "attack2",
              "type": "string"
            },
            {
              "internalType": "string",
              "name": "attack3",
              "type": "string"
            },
            {
              "internalType": "string",
              "name": "attack4",
              "type": "string"
            },
            {
              "internalType": "bytes",
              "name": "signature",
              "type": "bytes"
            }
          ],
          "internalType": "struct MintmonsUriStorage.NFTVoucher",
          "name": "voucher",
          "type": "tuple"
        }
      ],
      "name": "metadataUpdate",
      "outputs": [],
      "stateMutability": "nonpayable",
      "type": "function"
    },
    {
      "inputs": [],
      "name": "mintState",
      "outputs": [
        {
          "internalType": "bool",
          "name": "",
          "type": "bool"
        }
      ],
      "stateMutability": "view",
      "type": "function"
    },
    {
      "inputs": [],
      "name": "name",
      "outputs": [
        {
          "internalType": "string",
          "name": "",
          "type": "string"
        }
      ],
      "stateMutability": "view",
      "type": "function"
    },
    {
      "inputs": [],
      "name": "owner",
      "outputs": [
        {
          "internalType": "address",
          "name": "",
          "type": "address"
        }
      ],
      "stateMutability": "view",
      "type": "function"
    },
    {
      "inputs": [
        {
          "internalType": "uint256",
          "name": "tokenId",
          "type": "uint256"
        }
      ],
      "name": "ownerOf",
      "outputs": [
        {
          "internalType": "address",
          "name": "",
          "type": "address"
        }
      ],
      "stateMutability": "view",
      "type": "function"
    },
    {
      "inputs": [
        {
          "internalType": "address",
          "name": "redeemer",
          "type": "address"
        },
        {
          "components": [
            {
              "internalType": "uint256",
              "name": "tokenId",
              "type": "uint256"
            },
            {
              "internalType": "string",
              "name": "name",
              "type": "string"
            },
            {
              "internalType": "string",
              "name": "level",
              "type": "string"
            },
            {
              "internalType": "uint256",
              "name": "experience",
              "type": "uint256"
            },
            {
              "internalType": "string",
              "name": "image",
              "type": "string"
            },
            {
              "internalType": "string",
              "name": "tp",
              "type": "string"
            },
            {
              "internalType": "string",
              "name": "description",
              "type": "string"
            },
            {
              "internalType": "string",
              "name": "attack1",
              "type": "string"
            },
            {
              "internalType": "string",
              "name": "attack2",
              "type": "string"
            },
            {
              "internalType": "string",
              "name": "attack3",
              "type": "string"
            },
            {
              "internalType": "string",
              "name": "attack4",
              "type": "string"
            },
            {
              "internalType": "bytes",
              "name": "signature",
              "type": "bytes"
            }
          ],
          "internalType": "struct MintmonsUriStorage.NFTVoucher",
          "name": "voucher",
          "type": "tuple"
        }
      ],
      "name": "redeem",
      "outputs": [
        {
          "internalType": "uint256",
          "name": "",
          "type": "uint256"
        }
      ],
      "stateMutability": "nonpayable",
      "type": "function"
    },
    {
      "inputs": [],
      "name": "renounceOwnership",
      "outputs": [],
      "stateMutability": "nonpayable",
      "type": "function"
    },
    {
      "inputs": [
        {
          "internalType": "bytes32",
          "name": "role",
          "type": "bytes32"
        },
        {
          "internalType": "address",
          "name": "account",
          "type": "address"
        }
      ],
      "name": "renounceRole",
      "outputs": [],
      "stateMutability": "nonpayable",
      "type": "function"
    },
    {
      "inputs": [
        {
          "internalType": "bytes32",
          "name": "role",
          "type": "bytes32"
        },
        {
          "internalType": "address",
          "name": "account",
          "type": "address"
        }
      ],
      "name": "revokeRole",
      "outputs": [],
      "stateMutability": "nonpayable",
      "type": "function"
    },
    {
      "inputs": [
        {
          "internalType": "address",
          "name": "from",
          "type": "address"
        },
        {
          "internalType": "address",
          "name": "to",
          "type": "address"
        },
        {
          "internalType": "uint256",
          "name": "tokenId",
          "type": "uint256"
        }
      ],
      "name": "safeTransferFrom",
      "outputs": [],
      "stateMutability": "nonpayable",
      "type": "function"
    },
    {
      "inputs": [
        {
          "internalType": "address",
          "name": "from",
          "type": "address"
        },
        {
          "internalType": "address",
          "name": "to",
          "type": "address"
        },
        {
          "internalType": "uint256",
          "name": "tokenId",
          "type": "uint256"
        },
        {
          "internalType": "bytes",
          "name": "data",
          "type": "bytes"
        }
      ],
      "name": "safeTransferFrom",
      "outputs": [],
      "stateMutability": "nonpayable",
      "type": "function"
    },
    {
      "inputs": [
        {
          "internalType": "address",
          "name": "operator",
          "type": "address"
        },
        {
          "internalType": "bool",
          "name": "approved",
          "type": "bool"
        }
      ],
      "name": "setApprovalForAll",
      "outputs": [],
      "stateMutability": "nonpayable",
      "type": "function"
    },
    {
      "inputs": [
        {
          "internalType": "bytes4",
          "name": "interfaceId",
          "type": "bytes4"
        }
      ],
      "name": "supportsInterface",
      "outputs": [
        {
          "internalType": "bool",
          "name": "",
          "type": "bool"
        }
      ],
      "stateMutability": "view",
      "type": "function"
    },
    {
      "inputs": [],
      "name": "symbol",
      "outputs": [
        {
          "internalType": "string",
          "name": "",
          "type": "string"
        }
      ],
      "stateMutability": "view",
      "type": "function"
    },
    {
      "inputs": [
        {
          "internalType": "uint256",
          "name": "tokenId",
          "type": "uint256"
        }
      ],
      "name": "tokenURI",
      "outputs": [
        {
          "internalType": "string",
          "name": "",
          "type": "string"
        }
      ],
      "stateMutability": "view",
      "type": "function"
    },
    {
      "inputs": [],
      "name": "totalSupply",
      "outputs": [
        {
          "internalType": "uint256",
          "name": "",
          "type": "uint256"
        }
      ],
      "stateMutability": "view",
      "type": "function"
    },
    {
      "inputs": [
        {
          "internalType": "address",
          "name": "from",
          "type": "address"
        },
        {
          "internalType": "address",
          "name": "to",
          "type": "address"
        },
        {
          "internalType": "uint256",
          "name": "tokenId",
          "type": "uint256"
        }
      ],
      "name": "transferFrom",
      "outputs": [],
      "stateMutability": "nonpayable",
      "type": "function"
    },
    {
      "inputs": [
        {
          "internalType": "address",
          "name": "newOwner",
          "type": "address"
        }
      ],
      "name": "transferOwnership",
      "outputs": [],
      "stateMutability": "nonpayable",
      "type": "function"
    },
    {
      "inputs": [
        {
          "internalType": "address",
          "name": "_owner",
          "type": "address"
        }
      ],
      "name": "walletOfOwner",
      "outputs": [
        {
          "internalType": "uint256[]",
          "name": "",
          "type": "uint256[]"
        }
      ],
      "stateMutability": "view",
      "type": "function"
    }
  ],
  "bytecode": "0x6101406040523480156200001257600080fd5b50604051620064f1380380620064f183398181016040528101906200003891906200054b565b6040518060400160405280600f81526020017f4d696e746d6f6e2d566f756368657200000000000000000000000000000000008152506040518060400160405280600181526020017f31000000000000000000000000000000000000000000000000000000000000008152506040518060400160405280600781526020017f4d696e746d6f6e000000000000000000000000000000000000000000000000008152506040518060400160405280600381526020017f4d544d00000000000000000000000000000000000000000000000000000000008152508160009081620001219190620007f7565b508060019081620001339190620007f7565b50505060008280519060200120905060008280519060200120905060007f8b73c3c69bb8fe3d512ecc4cf759cc79239f7b179b0ffacaa9a75d522b39400f90508260e081815250508161010081815250504660a081815250506200019f8184846200026460201b60201c565b608081815250503073ffffffffffffffffffffffffffffffffffffffff1660c08173ffffffffffffffffffffffffffffffffffffffff1681525050806101208181525050505050505062000208620001fc620002a060201b60201c565b620002a860201b60201c565b6200023a7f9f2df0fed2c77648de5860a4cc508cd0818c85b8b8a1ab4ceeef8d981c8956a6826200036e60201b60201c565b60016009819055506001600a60006101000a81548160ff0219169083151502179055505062000978565b60008383834630604051602001620002819594939291906200091b565b6040516020818303038152906040528051906020012090509392505050565b600033905090565b6000600860009054906101000a900473ffffffffffffffffffffffffffffffffffffffff16905081600860006101000a81548173ffffffffffffffffffffffffffffffffffffffff021916908373ffffffffffffffffffffffffffffffffffffffff1602179055508173ffffffffffffffffffffffffffffffffffffffff168173ffffffffffffffffffffffffffffffffffffffff167f8be0079c531659141344cd1fd0a4f28419497f9722a3daafe3b4186f6b6457e060405160405180910390a35050565b6200038082826200038460201b60201c565b5050565b6200039682826200047660201b60201c565b620004725760016007600084815260200190815260200160002060000160008373ffffffffffffffffffffffffffffffffffffffff1673ffffffffffffffffffffffffffffffffffffffff16815260200190815260200160002060006101000a81548160ff02191690831515021790555062000417620002a060201b60201c565b73ffffffffffffffffffffffffffffffffffffffff168173ffffffffffffffffffffffffffffffffffffffff16837f2f8788117e7eff1d82e926ec794901d17c78024a50270940304540a733656f0d60405160405180910390a45b5050565b60006007600084815260200190815260200160002060000160008373ffffffffffffffffffffffffffffffffffffffff1673ffffffffffffffffffffffffffffffffffffffff16815260200190815260200160002060009054906101000a900460ff16905092915050565b600080fd5b600073ffffffffffffffffffffffffffffffffffffffff82169050919050565b60006200051382620004e6565b9050919050565b620005258162000506565b81146200053157600080fd5b50565b60008151905062000545816200051a565b92915050565b600060208284031215620005645762000563620004e1565b5b6000620005748482850162000534565b91505092915050565b600081519050919050565b7f4e487b7100000000000000000000000000000000000000000000000000000000600052604160045260246000fd5b7f4e487b7100000000000000000000000000000000000000000000000000000000600052602260045260246000fd5b60006002820490506001821680620005ff57607f821691505b602082108103620006155762000614620005b7565b5b50919050565b60008190508160005260206000209050919050565b60006020601f8301049050919050565b600082821b905092915050565b6000600883026200067f7fffffffffffffffffffffffffffffffffffffffffffffffffffffffffffffffff8262000640565b6200068b868362000640565b95508019841693508086168417925050509392505050565b6000819050919050565b6000819050919050565b6000620006d8620006d2620006cc84620006a3565b620006ad565b620006a3565b9050919050565b6000819050919050565b620006f483620006b7565b6200070c6200070382620006df565b8484546200064d565b825550505050565b600090565b6200072362000714565b62000730818484620006e9565b505050565b5b8181101562000758576200074c60008262000719565b60018101905062000736565b5050565b601f821115620007a75762000771816200061b565b6200077c8462000630565b810160208510156200078c578190505b620007a46200079b8562000630565b83018262000735565b50505b505050565b600082821c905092915050565b6000620007cc60001984600802620007ac565b1980831691505092915050565b6000620007e78383620007b9565b9150826002028217905092915050565b62000802826200057d565b67ffffffffffffffff8111156200081e576200081d62000588565b5b6200082a8254620005e6565b620008378282856200075c565b600060209050601f8311600181146200086f57600084156200085a578287015190505b620008668582620007d9565b865550620008d6565b601f1984166200087f866200061b565b60005b82811015620008a95784890151825560018201915060208501945060208101905062000882565b86831015620008c95784890151620008c5601f891682620007b9565b8355505b6001600288020188555050505b505050505050565b6000819050919050565b620008f381620008de565b82525050565b6200090481620006a3565b82525050565b620009158162000506565b82525050565b600060a082019050620009326000830188620008e8565b620009416020830187620008e8565b620009506040830186620008e8565b6200095f6060830185620008f9565b6200096e60808301846200090a565b9695505050505050565b60805160a05160c05160e0516101005161012051615b29620009c8600039600061363d0152600061367f0152600061365e01526000613593015260006135e9015260006136120152615b296000f3fe608060405234801561001057600080fd5b50600436106101da5760003560e01c806370a0823111610104578063b88d4fde116100a2578063d539139311610071578063d53913931461057b578063d547741f14610599578063e985e9c5146105b5578063f2fde38b146105e5576101da565b8063b88d4fde146104e1578063c051e38a146104fd578063c44298cf1461051b578063c87b56dd1461054b576101da565b806391d14854116100de57806391d148541461045957806395d89b4114610489578063a217fddf146104a7578063a22cb465146104c5576101da565b806370a0823114610401578063715018a6146104315780638da5cb5b1461043b576101da565b80632f2ff15d1161017c578063564b81ef1161014b578063564b81ef146103675780635dfc6e65146103855780636352211e146103a157806363cab531146103d1576101da565b80632f2ff15d146102e357806336568abe146102ff57806342842e0e1461031b578063438b630014610337576101da565b8063095ea7b3116101b8578063095ea7b31461025d57806318160ddd1461027957806323b872dd14610297578063248a9ca3146102b3576101da565b806301ffc9a7146101df57806306fdde031461020f578063081812fc1461022d575b600080fd5b6101f960048036038101906101f49190613887565b610601565b60405161020691906138cf565b60405180910390f35b610217610623565b604051610224919061397a565b60405180910390f35b610247600480360381019061024291906139d2565b6106b5565b6040516102549190613a40565b60405180910390f35b61027760048036038101906102729190613a87565b6106fb565b005b610281610812565b60405161028e9190613ad6565b60405180910390f35b6102b160048036038101906102ac9190613af1565b610828565b005b6102cd60048036038101906102c89190613b7a565b610888565b6040516102da9190613bb6565b60405180910390f35b6102fd60048036038101906102f89190613bd1565b6108a8565b005b61031960048036038101906103149190613bd1565b6108c9565b005b61033560048036038101906103309190613af1565b61094c565b005b610351600480360381019061034c9190613c11565b61096c565b60405161035e9190613cfc565b60405180910390f35b61036f610a7b565b60405161037c9190613ad6565b60405180910390f35b61039f600480360381019061039a9190613d43565b610a88565b005b6103bb60048036038101906103b691906139d2565b610b3c565b6040516103c89190613a40565b60405180910390f35b6103eb60048036038101906103e69190613d43565b610bc2565b6040516103f89190613a40565b60405180910390f35b61041b60048036038101906104169190613c11565b610c35565b6040516104289190613ad6565b60405180910390f35b610439610cec565b005b610443610d00565b6040516104509190613a40565b60405180910390f35b610473600480360381019061046e9190613bd1565b610d2a565b60405161048091906138cf565b60405180910390f35b610491610d95565b60405161049e919061397a565b60405180910390f35b6104af610e27565b6040516104bc9190613bb6565b60405180910390f35b6104df60048036038101906104da9190613db8565b610e2e565b005b6104fb60048036038101906104f69190613f2d565b610e44565b005b610505610ea6565b60405161051291906138cf565b60405180910390f35b61053560048036038101906105309190613fb0565b610eb9565b6040516105429190613ad6565b60405180910390f35b610565600480360381019061056091906139d2565b610fe0565b604051610572919061397a565b60405180910390f35b6105836115e3565b6040516105909190613bb6565b60405180910390f35b6105b360048036038101906105ae9190613bd1565b611607565b005b6105cf60048036038101906105ca919061400c565b611628565b6040516105dc91906138cf565b60405180910390f35b6105ff60048036038101906105fa9190613c11565b6116bc565b005b600061060c8261173f565b8061061c575061061b82611821565b5b9050919050565b6060600080546106329061407b565b80601f016020809104026020016040519081016040528092919081815260200182805461065e9061407b565b80156106ab5780601f10610680576101008083540402835291602001916106ab565b820191906000526020600020905b81548152906001019060200180831161068e57829003601f168201915b5050505050905090565b60006106c08261189b565b6004600083815260200190815260200160002060009054906101000a900473ffffffffffffffffffffffffffffffffffffffff169050919050565b600061070682610b3c565b90508073ffffffffffffffffffffffffffffffffffffffff168373ffffffffffffffffffffffffffffffffffffffff1603610776576040517f08c379a000000000000000000000000000000000000000000000000000000000815260040161076d9061411e565b60405180910390fd5b8073ffffffffffffffffffffffffffffffffffffffff166107956118e6565b73ffffffffffffffffffffffffffffffffffffffff1614806107c457506107c3816107be6118e6565b611628565b5b610803576040517f08c379a00000000000000000000000000000000000000000000000000000000081526004016107fa906141b0565b60405180910390fd5b61080d83836118ee565b505050565b6000600160095461082391906141ff565b905090565b6108396108336118e6565b826119a7565b610878576040517f08c379a000000000000000000000000000000000000000000000000000000000815260040161086f906142a5565b60405180910390fd5b610883838383611a3c565b505050565b600060076000838152602001908152602001600020600101549050919050565b6108b182610888565b6108ba81611d35565b6108c48383611d49565b505050565b6108d16118e6565b73ffffffffffffffffffffffffffffffffffffffff168173ffffffffffffffffffffffffffffffffffffffff161461093e576040517f08c379a000000000000000000000000000000000000000000000000000000000815260040161093590614337565b60405180910390fd5b6109488282611e2a565b5050565b61096783838360405180602001604052806000815250610e44565b505050565b6060600061097983610c35565b905060008167ffffffffffffffff81111561099757610996613e02565b5b6040519080825280602002602001820160405280156109c55781602001602082028036833780820191505090505b50905060006001905060005b83811080156109e757506109e3610812565b8211155b15610a6f5760006109f783610b3c565b90508673ffffffffffffffffffffffffffffffffffffffff168173ffffffffffffffffffffffffffffffffffffffff1603610a5b5782848381518110610a4057610a3f614357565b5b6020026020010181815250508180610a5790614386565b9250505b8280610a6690614386565b935050506109d1565b82945050505050919050565b6000804690508091505090565b6000610a9382610bc2565b9050610abf7f9f2df0fed2c77648de5860a4cc508cd0818c85b8b8a1ab4ceeef8d981c8956a682610d2a565b610afe576040517f08c379a0000000000000000000000000000000000000000000000000000000008152600401610af590614440565b60405180910390fd5b610b0782611f0c565b81600001357f65120451fe97d06f851b0d0550dc1188ad93084926bc20ac6e777a13f98c38a660405160405180910390a25050565b600080610b4883612179565b9050600073ffffffffffffffffffffffffffffffffffffffff168173ffffffffffffffffffffffffffffffffffffffff1603610bb9576040517f08c379a0000000000000000000000000000000000000000000000000000000008152600401610bb0906144ac565b60405180910390fd5b80915050919050565b600080610bce836121b6565b9050610c2d8184806101600190610be591906144db565b8080601f016020809104026020016040519081016040528093929190818152602001838380828437600081840152601f19601f8201169050808301925050505050505061237c565b915050919050565b60008073ffffffffffffffffffffffffffffffffffffffff168273ffffffffffffffffffffffffffffffffffffffff1603610ca5576040517f08c379a0000000000000000000000000000000000000000000000000000000008152600401610c9c906145b0565b60405180910390fd5b600360008373ffffffffffffffffffffffffffffffffffffffff1673ffffffffffffffffffffffffffffffffffffffff168152602001908152602001600020549050919050565b610cf46123a3565b610cfe6000612421565b565b6000600860009054906101000a900473ffffffffffffffffffffffffffffffffffffffff16905090565b60006007600084815260200190815260200160002060000160008373ffffffffffffffffffffffffffffffffffffffff1673ffffffffffffffffffffffffffffffffffffffff16815260200190815260200160002060009054906101000a900460ff16905092915050565b606060018054610da49061407b565b80601f0160208091040260200160405190810160405280929190818152602001828054610dd09061407b565b8015610e1d5780601f10610df257610100808354040283529160200191610e1d565b820191906000526020600020905b815481529060010190602001808311610e0057829003601f168201915b5050505050905090565b6000801b81565b610e40610e396118e6565b83836124e7565b5050565b610e55610e4f6118e6565b836119a7565b610e94576040517f08c379a0000000000000000000000000000000000000000000000000000000008152600401610e8b906142a5565b60405180910390fd5b610ea084848484612653565b50505050565b600a60009054906101000a900460ff1681565b6000600a60009054906101000a900460ff16610f0a576040517f08c379a0000000000000000000000000000000000000000000000000000000008152600401610f019061461c565b60405180910390fd5b6000610f1583610bc2565b9050610f417f9f2df0fed2c77648de5860a4cc508cd0818c85b8b8a1ab4ceeef8d981c8956a682610d2a565b610f80576040517f08c379a0000000000000000000000000000000000000000000000000000000008152600401610f7790614440565b60405180910390fd5b60096000815480929190610f9390614386565b9190505550610fb0846001600954610fab91906141ff565b6126af565b610fc86001600954610fc291906141ff565b846128cc565b6001600954610fd791906141ff565b91505092915050565b6060610feb8261189b565b6000600660008481526020019081526020016000206040518061014001604052908160008201805461101c9061407b565b80601f01602080910402602001604051908101604052809291908181526020018280546110489061407b565b80156110955780601f1061106a57610100808354040283529160200191611095565b820191906000526020600020905b81548152906001019060200180831161107857829003601f168201915b505050505081526020016001820180546110ae9061407b565b80601f01602080910402602001604051908101604052809291908181526020018280546110da9061407b565b80156111275780601f106110fc57610100808354040283529160200191611127565b820191906000526020600020905b81548152906001019060200180831161110a57829003601f168201915b505050505081526020016002820180546111409061407b565b80601f016020809104026020016040519081016040528092919081815260200182805461116c9061407b565b80156111b95780601f1061118e576101008083540402835291602001916111b9565b820191906000526020600020905b81548152906001019060200180831161119c57829003601f168201915b50505050508152602001600382015481526020016004820180546111dc9061407b565b80601f01602080910402602001604051908101604052809291908181526020018280546112089061407b565b80156112555780601f1061122a57610100808354040283529160200191611255565b820191906000526020600020905b81548152906001019060200180831161123857829003601f168201915b5050505050815260200160058201805461126e9061407b565b80601f016020809104026020016040519081016040528092919081815260200182805461129a9061407b565b80156112e75780601f106112bc576101008083540402835291602001916112e7565b820191906000526020600020905b8154815290600101906020018083116112ca57829003601f168201915b505050505081526020016006820180546113009061407b565b80601f016020809104026020016040519081016040528092919081815260200182805461132c9061407b565b80156113795780601f1061134e57610100808354040283529160200191611379565b820191906000526020600020905b81548152906001019060200180831161135c57829003601f168201915b505050505081526020016007820180546113929061407b565b80601f01602080910402602001604051908101604052809291908181526020018280546113be9061407b565b801561140b5780601f106113e05761010080835404028352916020019161140b565b820191906000526020600020905b8154815290600101906020018083116113ee57829003601f168201915b505050505081526020016008820180546114249061407b565b80601f01602080910402602001604051908101604052809291908181526020018280546114509061407b565b801561149d5780601f106114725761010080835404028352916020019161149d565b820191906000526020600020905b81548152906001019060200180831161148057829003601f168201915b505050505081526020016009820180546114b69061407b565b80601f01602080910402602001604051908101604052809291908181526020018280546114e29061407b565b801561152f5780601f106115045761010080835404028352916020019161152f565b820191906000526020600020905b81548152906001019060200180831161151257829003601f168201915b505050505081525050905060006115b282600001518360a00151846020015185604001516115608760600151612b0e565b6115698a612b0e565b88608001518960c001518a60e001518b61010001518c610120015160405160200161159e9b9a99989796959493929190614ac6565b604051602081830303815290604052612bdc565b90506000816040516020016115c79190614c2f565b6040516020818303038152906040529050809350505050919050565b7f9f2df0fed2c77648de5860a4cc508cd0818c85b8b8a1ab4ceeef8d981c8956a681565b61161082610888565b61161981611d35565b6116238383611e2a565b505050565b6000600560008473ffffffffffffffffffffffffffffffffffffffff1673ffffffffffffffffffffffffffffffffffffffff16815260200190815260200160002060008373ffffffffffffffffffffffffffffffffffffffff1673ffffffffffffffffffffffffffffffffffffffff16815260200190815260200160002060009054906101000a900460ff16905092915050565b6116c46123a3565b600073ffffffffffffffffffffffffffffffffffffffff168173ffffffffffffffffffffffffffffffffffffffff1603611733576040517f08c379a000000000000000000000000000000000000000000000000000000000815260040161172a90614cc3565b60405180910390fd5b61173c81612421565b50565b60007f80ac58cd000000000000000000000000000000000000000000000000000000007bffffffffffffffffffffffffffffffffffffffffffffffffffffffff1916827bffffffffffffffffffffffffffffffffffffffffffffffffffffffff1916148061180a57507f5b5e139f000000000000000000000000000000000000000000000000000000007bffffffffffffffffffffffffffffffffffffffffffffffffffffffff1916827bffffffffffffffffffffffffffffffffffffffffffffffffffffffff1916145b8061181a575061181982612d3f565b5b9050919050565b60007f7965db0b000000000000000000000000000000000000000000000000000000007bffffffffffffffffffffffffffffffffffffffffffffffffffffffff1916827bffffffffffffffffffffffffffffffffffffffffffffffffffffffff1916148061189457506118938261173f565b5b9050919050565b6118a481612da9565b6118e3576040517f08c379a00000000000000000000000000000000000000000000000000000000081526004016118da906144ac565b60405180910390fd5b50565b600033905090565b816004600083815260200190815260200160002060006101000a81548173ffffffffffffffffffffffffffffffffffffffff021916908373ffffffffffffffffffffffffffffffffffffffff160217905550808273ffffffffffffffffffffffffffffffffffffffff1661196183610b3c565b73ffffffffffffffffffffffffffffffffffffffff167f8c5be1e5ebec7d5bd14f71427d1e84f3dd0314c0f7b2291e5b200ac8c7c3b92560405160405180910390a45050565b6000806119b383610b3c565b90508073ffffffffffffffffffffffffffffffffffffffff168473ffffffffffffffffffffffffffffffffffffffff1614806119f557506119f48185611628565b5b80611a3357508373ffffffffffffffffffffffffffffffffffffffff16611a1b846106b5565b73ffffffffffffffffffffffffffffffffffffffff16145b91505092915050565b8273ffffffffffffffffffffffffffffffffffffffff16611a5c82610b3c565b73ffffffffffffffffffffffffffffffffffffffff1614611ab2576040517f08c379a0000000000000000000000000000000000000000000000000000000008152600401611aa990614d55565b60405180910390fd5b600073ffffffffffffffffffffffffffffffffffffffff168273ffffffffffffffffffffffffffffffffffffffff1603611b21576040517f08c379a0000000000000000000000000000000000000000000000000000000008152600401611b1890614de7565b60405180910390fd5b611b2e8383836001612dea565b8273ffffffffffffffffffffffffffffffffffffffff16611b4e82610b3c565b73ffffffffffffffffffffffffffffffffffffffff1614611ba4576040517f08c379a0000000000000000000000000000000000000000000000000000000008152600401611b9b90614d55565b60405180910390fd5b6004600082815260200190815260200160002060006101000a81549073ffffffffffffffffffffffffffffffffffffffff02191690556001600360008573ffffffffffffffffffffffffffffffffffffffff1673ffffffffffffffffffffffffffffffffffffffff168152602001908152602001600020600082825403925050819055506001600360008473ffffffffffffffffffffffffffffffffffffffff1673ffffffffffffffffffffffffffffffffffffffff16815260200190815260200160002060008282540192505081905550816002600083815260200190815260200160002060006101000a81548173ffffffffffffffffffffffffffffffffffffffff021916908373ffffffffffffffffffffffffffffffffffffffff160217905550808273ffffffffffffffffffffffffffffffffffffffff168473ffffffffffffffffffffffffffffffffffffffff167fddf252ad1be2c89b69c2b068fc378daa952ba7f163c4a11628f55a4df523b3ef60405160405180910390a4611d308383836001612df0565b505050565b611d4681611d416118e6565b612df6565b50565b611d538282610d2a565b611e265760016007600084815260200190815260200160002060000160008373ffffffffffffffffffffffffffffffffffffffff1673ffffffffffffffffffffffffffffffffffffffff16815260200190815260200160002060006101000a81548160ff021916908315150217905550611dcb6118e6565b73ffffffffffffffffffffffffffffffffffffffff168173ffffffffffffffffffffffffffffffffffffffff16837f2f8788117e7eff1d82e926ec794901d17c78024a50270940304540a733656f0d60405160405180910390a45b5050565b611e348282610d2a565b15611f085760006007600084815260200190815260200160002060000160008373ffffffffffffffffffffffffffffffffffffffff1673ffffffffffffffffffffffffffffffffffffffff16815260200190815260200160002060006101000a81548160ff021916908315150217905550611ead6118e6565b73ffffffffffffffffffffffffffffffffffffffff168173ffffffffffffffffffffffffffffffffffffffff16837ff6391f5c32d9c69d2a47ea670b442974b53935d1edc7fd64eb21e047a839171b60405160405180910390a45b5050565b611f198160000135612da9565b611f58576040517f08c379a0000000000000000000000000000000000000000000000000000000008152600401611f4f90614e53565b60405180910390fd5b808060200190611f689190614e73565b60066000846000013581526020019081526020016000206000019182611f8f92919061508d565b50808060800190611fa09190614e73565b60066000846000013581526020019081526020016000206001019182611fc792919061508d565b50808060400190611fd89190614e73565b60066000846000013581526020019081526020016000206002019182611fff92919061508d565b508060600135600660008360000135815260200190815260200160002060030181905550808060a001906120339190614e73565b6006600084600001358152602001908152602001600020600401918261205a92919061508d565b50808060c0019061206b9190614e73565b6006600084600001358152602001908152602001600020600501918261209292919061508d565b50808060e001906120a39190614e73565b600660008460000135815260200190815260200160002060060191826120ca92919061508d565b50808061010001906120dc9190614e73565b6006600084600001358152602001908152602001600020600701918261210392919061508d565b50808061012001906121159190614e73565b6006600084600001358152602001908152602001600020600801918261213c92919061508d565b508080610140019061214e9190614e73565b6006600084600001358152602001908152602001600020600901918261217592919061508d565b5050565b60006002600083815260200190815260200160002060009054906101000a900473ffffffffffffffffffffffffffffffffffffffff169050919050565b60006123757f718b0ea8e20042a03ef8a740cb2e3923ef51a9f478ec5ec06c15881fada5354583600001358480602001906121f19190614e73565b6040516121ff92919061518d565b60405180910390208580604001906122179190614e73565b60405161222592919061518d565b604051809103902086606001358780608001906122429190614e73565b60405161225092919061518d565b6040518091039020888060a001906122689190614e73565b60405161227692919061518d565b6040518091039020898060c0019061228e9190614e73565b60405161229c92919061518d565b60405180910390208a8060e001906122b49190614e73565b6040516122c292919061518d565b60405180910390208b8061010001906122db9190614e73565b6040516122e992919061518d565b60405180910390208c8061012001906123029190614e73565b60405161231092919061518d565b60405180910390208d8061014001906123299190614e73565b60405161233792919061518d565b604051809103902060405160200161235a9c9b9a999897969594939291906151a6565b60405160208183030381529060405280519060200120612e7b565b9050919050565b600080600061238b8585612e95565b9150915061239881612ee6565b819250505092915050565b6123ab6118e6565b73ffffffffffffffffffffffffffffffffffffffff166123c9610d00565b73ffffffffffffffffffffffffffffffffffffffff161461241f576040517f08c379a0000000000000000000000000000000000000000000000000000000008152600401612416906152ac565b60405180910390fd5b565b6000600860009054906101000a900473ffffffffffffffffffffffffffffffffffffffff16905081600860006101000a81548173ffffffffffffffffffffffffffffffffffffffff021916908373ffffffffffffffffffffffffffffffffffffffff1602179055508173ffffffffffffffffffffffffffffffffffffffff168173ffffffffffffffffffffffffffffffffffffffff167f8be0079c531659141344cd1fd0a4f28419497f9722a3daafe3b4186f6b6457e060405160405180910390a35050565b8173ffffffffffffffffffffffffffffffffffffffff168373ffffffffffffffffffffffffffffffffffffffff1603612555576040517f08c379a000000000000000000000000000000000000000000000000000000000815260040161254c90615318565b60405180910390fd5b80600560008573ffffffffffffffffffffffffffffffffffffffff1673ffffffffffffffffffffffffffffffffffffffff16815260200190815260200160002060008473ffffffffffffffffffffffffffffffffffffffff1673ffffffffffffffffffffffffffffffffffffffff16815260200190815260200160002060006101000a81548160ff0219169083151502179055508173ffffffffffffffffffffffffffffffffffffffff168373ffffffffffffffffffffffffffffffffffffffff167f17307eab39ab6107e8899845ad3d59bd9653f200f220920489ca2b5937696c318360405161264691906138cf565b60405180910390a3505050565b61265e848484611a3c565b61266a8484848461304c565b6126a9576040517f08c379a00000000000000000000000000000000000000000000000000000000081526004016126a0906153aa565b60405180910390fd5b50505050565b600073ffffffffffffffffffffffffffffffffffffffff168273ffffffffffffffffffffffffffffffffffffffff160361271e576040517f08c379a000000000000000000000000000000000000000000000000000000000815260040161271590615416565b60405180910390fd5b61272781612da9565b15612767576040517f08c379a000000000000000000000000000000000000000000000000000000000815260040161275e90615482565b60405180910390fd5b612775600083836001612dea565b61277e81612da9565b156127be576040517f08c379a00000000000000000000000000000000000000000000000000000000081526004016127b590615482565b60405180910390fd5b6001600360008473ffffffffffffffffffffffffffffffffffffffff1673ffffffffffffffffffffffffffffffffffffffff16815260200190815260200160002060008282540192505081905550816002600083815260200190815260200160002060006101000a81548173ffffffffffffffffffffffffffffffffffffffff021916908373ffffffffffffffffffffffffffffffffffffffff160217905550808273ffffffffffffffffffffffffffffffffffffffff16600073ffffffffffffffffffffffffffffffffffffffff167fddf252ad1be2c89b69c2b068fc378daa952ba7f163c4a11628f55a4df523b3ef60405160405180910390a46128c8600083836001612df0565b5050565b6128d582612da9565b612914576040517f08c379a000000000000000000000000000000000000000000000000000000000815260040161290b90614e53565b60405180910390fd5b8080602001906129249190614e73565b60066000858152602001908152602001600020600001918261294792919061508d565b508080608001906129589190614e73565b60066000858152602001908152602001600020600101918261297b92919061508d565b5080806040019061298c9190614e73565b6006600085815260200190815260200160002060020191826129af92919061508d565b5080606001356006600084815260200190815260200160002060030181905550808060a001906129df9190614e73565b600660008581526020019081526020016000206004019182612a0292919061508d565b50808060c00190612a139190614e73565b600660008581526020019081526020016000206005019182612a3692919061508d565b50808060e00190612a479190614e73565b600660008581526020019081526020016000206006019182612a6a92919061508d565b5080806101000190612a7c9190614e73565b600660008581526020019081526020016000206007019182612a9f92919061508d565b5080806101200190612ab19190614e73565b600660008581526020019081526020016000206008019182612ad492919061508d565b5080806101400190612ae69190614e73565b600660008581526020019081526020016000206009019182612b0992919061508d565b505050565b606060006001612b1d846131d3565b01905060008167ffffffffffffffff811115612b3c57612b3b613e02565b5b6040519080825280601f01601f191660200182016040528015612b6e5781602001600182028036833780820191505090505b509050600082602001820190505b600115612bd1578080600190039150507f3031323334353637383961626364656600000000000000000000000000000000600a86061a8153600a8581612bc557612bc46154a2565b5b04945060008503612b7c575b819350505050919050565b60606000825103612bfe57604051806020016040528060008152509050612d3a565b6000604051806060016040528060408152602001615ab46040913990506000600360028551612c2d91906154d1565b612c379190615505565b6004612c439190615536565b67ffffffffffffffff811115612c5c57612c5b613e02565b5b6040519080825280601f01601f191660200182016040528015612c8e5781602001600182028036833780820191505090505b509050600182016020820185865187015b80821015612cfa576003820191508151603f8160121c168501518453600184019350603f81600c1c168501518453600184019350603f8160061c168501518453600184019350603f8116850151845360018401935050612c9f565b5050600386510660018114612d165760028114612d2957612d31565b603d6001830353603d6002830353612d31565b603d60018303535b50505080925050505b919050565b60007f01ffc9a7000000000000000000000000000000000000000000000000000000007bffffffffffffffffffffffffffffffffffffffffffffffffffffffff1916827bffffffffffffffffffffffffffffffffffffffffffffffffffffffff1916149050919050565b60008073ffffffffffffffffffffffffffffffffffffffff16612dcb83612179565b73ffffffffffffffffffffffffffffffffffffffff1614159050919050565b50505050565b50505050565b612e008282610d2a565b612e7757612e0d81613326565b612e1b8360001c6020613353565b604051602001612e2c929190615610565b6040516020818303038152906040526040517f08c379a0000000000000000000000000000000000000000000000000000000008152600401612e6e919061397a565b60405180910390fd5b5050565b6000612e8e612e8861358f565b836136a9565b9050919050565b6000806041835103612ed65760008060006020860151925060408601519150606086015160001a9050612eca878285856136dc565b94509450505050612edf565b60006002915091505b9250929050565b60006004811115612efa57612ef961564a565b5b816004811115612f0d57612f0c61564a565b5b03156130495760016004811115612f2757612f2661564a565b5b816004811115612f3a57612f3961564a565b5b03612f7a576040517f08c379a0000000000000000000000000000000000000000000000000000000008152600401612f71906156c5565b60405180910390fd5b60026004811115612f8e57612f8d61564a565b5b816004811115612fa157612fa061564a565b5b03612fe1576040517f08c379a0000000000000000000000000000000000000000000000000000000008152600401612fd890615731565b60405180910390fd5b60036004811115612ff557612ff461564a565b5b8160048111156130085761300761564a565b5b03613048576040517f08c379a000000000000000000000000000000000000000000000000000000000815260040161303f906157c3565b60405180910390fd5b5b50565b600061306d8473ffffffffffffffffffffffffffffffffffffffff166137be565b156131c6578373ffffffffffffffffffffffffffffffffffffffff1663150b7a026130966118e6565b8786866040518563ffffffff1660e01b81526004016130b89493929190615838565b6020604051808303816000875af19250505080156130f457506040513d601f19601f820116820180604052508101906130f19190615899565b60015b613176573d8060008114613124576040519150601f19603f3d011682016040523d82523d6000602084013e613129565b606091505b50600081510361316e576040517f08c379a0000000000000000000000000000000000000000000000000000000008152600401613165906153aa565b60405180910390fd5b805181602001fd5b63150b7a0260e01b7bffffffffffffffffffffffffffffffffffffffffffffffffffffffff1916817bffffffffffffffffffffffffffffffffffffffffffffffffffffffff1916149150506131cb565b600190505b949350505050565b600080600090507a184f03e93ff9f4daa797ed6e38ed64bf6a1f0100000000000000008310613231577a184f03e93ff9f4daa797ed6e38ed64bf6a1f0100000000000000008381613227576132266154a2565b5b0492506040810190505b6d04ee2d6d415b85acef8100000000831061326e576d04ee2d6d415b85acef81000000008381613264576132636154a2565b5b0492506020810190505b662386f26fc10000831061329d57662386f26fc100008381613293576132926154a2565b5b0492506010810190505b6305f5e10083106132c6576305f5e10083816132bc576132bb6154a2565b5b0492506008810190505b61271083106132eb5761271083816132e1576132e06154a2565b5b0492506004810190505b6064831061330e5760648381613304576133036154a2565b5b0492506002810190505b600a831061331d576001810190505b80915050919050565b606061334c8273ffffffffffffffffffffffffffffffffffffffff16601460ff16613353565b9050919050565b6060600060028360026133669190615536565b61337091906154d1565b67ffffffffffffffff81111561338957613388613e02565b5b6040519080825280601f01601f1916602001820160405280156133bb5781602001600182028036833780820191505090505b5090507f3000000000000000000000000000000000000000000000000000000000000000816000815181106133f3576133f2614357565b5b60200101907effffffffffffffffffffffffffffffffffffffffffffffffffffffffffffff1916908160001a9053507f78000000000000000000000000000000000000000000000000000000000000008160018151811061345757613456614357565b5b60200101907effffffffffffffffffffffffffffffffffffffffffffffffffffffffffffff1916908160001a905350600060018460026134979190615536565b6134a191906154d1565b90505b6001811115613541577f3031323334353637383961626364656600000000000000000000000000000000600f8616601081106134e3576134e2614357565b5b1a60f81b8282815181106134fa576134f9614357565b5b60200101907effffffffffffffffffffffffffffffffffffffffffffffffffffffffffffff1916908160001a905350600485901c94508061353a906158c6565b90506134a4565b5060008414613585576040517f08c379a000000000000000000000000000000000000000000000000000000000815260040161357c9061593b565b60405180910390fd5b8091505092915050565b60007f000000000000000000000000000000000000000000000000000000000000000073ffffffffffffffffffffffffffffffffffffffff163073ffffffffffffffffffffffffffffffffffffffff1614801561360b57507f000000000000000000000000000000000000000000000000000000000000000046145b15613638577f000000000000000000000000000000000000000000000000000000000000000090506136a6565b6136a37f00000000000000000000000000000000000000000000000000000000000000007f00000000000000000000000000000000000000000000000000000000000000007f00000000000000000000000000000000000000000000000000000000000000006137e1565b90505b90565b600082826040516020016136be9291906159c8565b60405160208183030381529060405280519060200120905092915050565b6000807f7fffffffffffffffffffffffffffffff5d576e7357a4501ddfe92f46681b20a08360001c11156137175760006003915091506137b5565b60006001878787876040516000815260200160405260405161373c9493929190615a1b565b6020604051602081039080840390855afa15801561375e573d6000803e3d6000fd5b505050602060405103519050600073ffffffffffffffffffffffffffffffffffffffff168173ffffffffffffffffffffffffffffffffffffffff16036137ac576000600192509250506137b5565b80600092509250505b94509492505050565b6000808273ffffffffffffffffffffffffffffffffffffffff163b119050919050565b600083838346306040516020016137fc959493929190615a60565b6040516020818303038152906040528051906020012090509392505050565b6000604051905090565b600080fd5b600080fd5b60007fffffffff0000000000000000000000000000000000000000000000000000000082169050919050565b6138648161382f565b811461386f57600080fd5b50565b6000813590506138818161385b565b92915050565b60006020828403121561389d5761389c613825565b5b60006138ab84828501613872565b91505092915050565b60008115159050919050565b6138c9816138b4565b82525050565b60006020820190506138e460008301846138c0565b92915050565b600081519050919050565b600082825260208201905092915050565b60005b83811015613924578082015181840152602081019050613909565b60008484015250505050565b6000601f19601f8301169050919050565b600061394c826138ea565b61395681856138f5565b9350613966818560208601613906565b61396f81613930565b840191505092915050565b600060208201905081810360008301526139948184613941565b905092915050565b6000819050919050565b6139af8161399c565b81146139ba57600080fd5b50565b6000813590506139cc816139a6565b92915050565b6000602082840312156139e8576139e7613825565b5b60006139f6848285016139bd565b91505092915050565b600073ffffffffffffffffffffffffffffffffffffffff82169050919050565b6000613a2a826139ff565b9050919050565b613a3a81613a1f565b82525050565b6000602082019050613a556000830184613a31565b92915050565b613a6481613a1f565b8114613a6f57600080fd5b50565b600081359050613a8181613a5b565b92915050565b60008060408385031215613a9e57613a9d613825565b5b6000613aac85828601613a72565b9250506020613abd858286016139bd565b9150509250929050565b613ad08161399c565b82525050565b6000602082019050613aeb6000830184613ac7565b92915050565b600080600060608486031215613b0a57613b09613825565b5b6000613b1886828701613a72565b9350506020613b2986828701613a72565b9250506040613b3a868287016139bd565b9150509250925092565b6000819050919050565b613b5781613b44565b8114613b6257600080fd5b50565b600081359050613b7481613b4e565b92915050565b600060208284031215613b9057613b8f613825565b5b6000613b9e84828501613b65565b91505092915050565b613bb081613b44565b82525050565b6000602082019050613bcb6000830184613ba7565b92915050565b60008060408385031215613be857613be7613825565b5b6000613bf685828601613b65565b9250506020613c0785828601613a72565b9150509250929050565b600060208284031215613c2757613c26613825565b5b6000613c3584828501613a72565b91505092915050565b600081519050919050565b600082825260208201905092915050565b6000819050602082019050919050565b613c738161399c565b82525050565b6000613c858383613c6a565b60208301905092915050565b6000602082019050919050565b6000613ca982613c3e565b613cb38185613c49565b9350613cbe83613c5a565b8060005b83811015613cef578151613cd68882613c79565b9750613ce183613c91565b925050600181019050613cc2565b5085935050505092915050565b60006020820190508181036000830152613d168184613c9e565b905092915050565b600080fd5b60006101808284031215613d3a57613d39613d1e565b5b81905092915050565b600060208284031215613d5957613d58613825565b5b600082013567ffffffffffffffff811115613d7757613d7661382a565b5b613d8384828501613d23565b91505092915050565b613d95816138b4565b8114613da057600080fd5b50565b600081359050613db281613d8c565b92915050565b60008060408385031215613dcf57613dce613825565b5b6000613ddd85828601613a72565b9250506020613dee85828601613da3565b9150509250929050565b600080fd5b600080fd5b7f4e487b7100000000000000000000000000000000000000000000000000000000600052604160045260246000fd5b613e3a82613930565b810181811067ffffffffffffffff82111715613e5957613e58613e02565b5b80604052505050565b6000613e6c61381b565b9050613e788282613e31565b919050565b600067ffffffffffffffff821115613e9857613e97613e02565b5b613ea182613930565b9050602081019050919050565b82818337600083830152505050565b6000613ed0613ecb84613e7d565b613e62565b905082815260208101848484011115613eec57613eeb613dfd565b5b613ef7848285613eae565b509392505050565b600082601f830112613f1457613f13613df8565b5b8135613f24848260208601613ebd565b91505092915050565b60008060008060808587031215613f4757613f46613825565b5b6000613f5587828801613a72565b9450506020613f6687828801613a72565b9350506040613f77878288016139bd565b925050606085013567ffffffffffffffff811115613f9857613f9761382a565b5b613fa487828801613eff565b91505092959194509250565b60008060408385031215613fc757613fc6613825565b5b6000613fd585828601613a72565b925050602083013567ffffffffffffffff811115613ff657613ff561382a565b5b61400285828601613d23565b9150509250929050565b6000806040838503121561402357614022613825565b5b600061403185828601613a72565b925050602061404285828601613a72565b9150509250929050565b7f4e487b7100000000000000000000000000000000000000000000000000000000600052602260045260246000fd5b6000600282049050600182168061409357607f821691505b6020821081036140a6576140a561404c565b5b50919050565b7f4552433732313a20617070726f76616c20746f2063757272656e74206f776e6560008201527f7200000000000000000000000000000000000000000000000000000000000000602082015250565b60006141086021836138f5565b9150614113826140ac565b604082019050919050565b60006020820190508181036000830152614137816140fb565b9050919050565b7f4552433732313a20617070726f76652063616c6c6572206973206e6f7420746f60008201527f6b656e206f776e6572206f7220617070726f76656420666f7220616c6c000000602082015250565b600061419a603d836138f5565b91506141a58261413e565b604082019050919050565b600060208201905081810360008301526141c98161418d565b9050919050565b7f4e487b7100000000000000000000000000000000000000000000000000000000600052601160045260246000fd5b600061420a8261399c565b91506142158361399c565b925082820390508181111561422d5761422c6141d0565b5b92915050565b7f4552433732313a2063616c6c6572206973206e6f7420746f6b656e206f776e6560008201527f72206f7220617070726f76656400000000000000000000000000000000000000602082015250565b600061428f602d836138f5565b915061429a82614233565b604082019050919050565b600060208201905081810360008301526142be81614282565b9050919050565b7f416363657373436f6e74726f6c3a2063616e206f6e6c792072656e6f756e636560008201527f20726f6c657320666f722073656c660000000000000000000000000000000000602082015250565b6000614321602f836138f5565b915061432c826142c5565b604082019050919050565b6000602082019050818103600083015261435081614314565b9050919050565b7f4e487b7100000000000000000000000000000000000000000000000000000000600052603260045260246000fd5b60006143918261399c565b91507fffffffffffffffffffffffffffffffffffffffffffffffffffffffffffffffff82036143c3576143c26141d0565b5b600182019050919050565b7f5369676e617475726520696e76616c6964206f7220756e617574686f72697a6560008201527f6400000000000000000000000000000000000000000000000000000000000000602082015250565b600061442a6021836138f5565b9150614435826143ce565b604082019050919050565b600060208201905081810360008301526144598161441d565b9050919050565b7f4552433732313a20696e76616c696420746f6b656e2049440000000000000000600082015250565b60006144966018836138f5565b91506144a182614460565b602082019050919050565b600060208201905081810360008301526144c581614489565b9050919050565b600080fd5b600080fd5b600080fd5b600080833560016020038436030381126144f8576144f76144cc565b5b80840192508235915067ffffffffffffffff82111561451a576145196144d1565b5b602083019250600182023603831315614536576145356144d6565b5b509250929050565b7f4552433732313a2061646472657373207a65726f206973206e6f74206120766160008201527f6c6964206f776e65720000000000000000000000000000000000000000000000602082015250565b600061459a6029836138f5565b91506145a58261453e565b604082019050919050565b600060208201905081810360008301526145c98161458d565b9050919050565b7f4d696e74696e6720697320706175736564000000000000000000000000000000600082015250565b60006146066011836138f5565b9150614611826145d0565b602082019050919050565b60006020820190508181036000830152614635816145f9565b9050919050565b600081905092915050565b7f7b226e616d65223a202200000000000000000000000000000000000000000000600082015250565b600061467d600a8361463c565b915061468882614647565b600a82019050919050565b600061469e826138ea565b6146a8818561463c565b93506146b8818560208601613906565b80840191505092915050565b7f222c226465736372697074696f6e223a22000000000000000000000000000000600082015250565b60006146fa60118361463c565b9150614705826146c4565b601182019050919050565b7f222c2022696d616765223a202200000000000000000000000000000000000000600082015250565b6000614746600d8361463c565b915061475182614710565b600d82019050919050565b7f222c20226c6576656c223a202200000000000000000000000000000000000000600082015250565b6000614792600d8361463c565b915061479d8261475c565b600d82019050919050565b7f222c2022657870657269656e6365223a20220000000000000000000000000000600082015250565b60006147de60128361463c565b91506147e9826147a8565b601282019050919050565b7f222c2022746f6b656e4964223a20220000000000000000000000000000000000600082015250565b600061482a600f8361463c565b9150614835826147f4565b600f82019050919050565b7f222c2261747472696275746573223a205b207b202274726169745f747970652260008201527f3a202254797065222c202276616c7565223a2022000000000000000000000000602082015250565b600061489c60348361463c565b91506148a782614840565b603482019050919050565b7f227d2c207b202274726169745f74797065223a202241747461636b5f31222c2060008201527f2276616c7565223a200000000000000000000000000000000000000000000000602082015250565b600061490e60298361463c565b9150614919826148b2565b602982019050919050565b7f227d2c207b202274726169745f74797065223a202241747461636b5f32222c2060008201527f2276616c7565223a200000000000000000000000000000000000000000000000602082015250565b600061498060298361463c565b915061498b82614924565b602982019050919050565b7f227d2c207b202274726169745f74797065223a202241747461636b5f33222c2060008201527f2276616c7565223a200000000000000000000000000000000000000000000000602082015250565b60006149f260298361463c565b91506149fd82614996565b602982019050919050565b7f227d2c207b202274726169745f74797065223a202241747461636b5f34222c2060008201527f2276616c7565223a200000000000000000000000000000000000000000000000602082015250565b6000614a6460298361463c565b9150614a6f82614a08565b602982019050919050565b7f7d205d7d00000000000000000000000000000000000000000000000000000000600082015250565b6000614ab060048361463c565b9150614abb82614a7a565b600482019050919050565b6000614ad182614670565b9150614add828e614693565b9150614ae8826146ed565b9150614af4828d614693565b9150614aff82614739565b9150614b0b828c614693565b9150614b1682614785565b9150614b22828b614693565b9150614b2d826147d1565b9150614b39828a614693565b9150614b448261481d565b9150614b508289614693565b9150614b5b8261488f565b9150614b678288614693565b9150614b7282614901565b9150614b7e8287614693565b9150614b8982614973565b9150614b958286614693565b9150614ba0826149e5565b9150614bac8285614693565b9150614bb782614a57565b9150614bc38284614693565b9150614bce82614aa3565b91508190509c9b505050505050505050505050565b7f646174613a6170706c69636174696f6e2f6a736f6e3b6261736536342c000000600082015250565b6000614c19601d8361463c565b9150614c2482614be3565b601d82019050919050565b6000614c3a82614c0c565b9150614c468284614693565b915081905092915050565b7f4f776e61626c653a206e6577206f776e657220697320746865207a65726f206160008201527f6464726573730000000000000000000000000000000000000000000000000000602082015250565b6000614cad6026836138f5565b9150614cb882614c51565b604082019050919050565b60006020820190508181036000830152614cdc81614ca0565b9050919050565b7f4552433732313a207472616e736665722066726f6d20696e636f72726563742060008201527f6f776e6572000000000000000000000000000000000000000000000000000000602082015250565b6000614d3f6025836138f5565b9150614d4a82614ce3565b604082019050919050565b60006020820190508181036000830152614d6e81614d32565b9050919050565b7f4552433732313a207472616e7366657220746f20746865207a65726f2061646460008201527f7265737300000000000000000000000000000000000000000000000000000000602082015250565b6000614dd16024836138f5565b9150614ddc82614d75565b604082019050919050565b60006020820190508181036000830152614e0081614dc4565b9050919050565b7f546f6b656e20494420646f6573206e6f74206578697374000000000000000000600082015250565b6000614e3d6017836138f5565b9150614e4882614e07565b602082019050919050565b60006020820190508181036000830152614e6c81614e30565b9050919050565b60008083356001602003843603038112614e9057614e8f6144cc565b5b80840192508235915067ffffffffffffffff821115614eb257614eb16144d1565b5b602083019250600182023603831315614ece57614ecd6144d6565b5b509250929050565b600082905092915050565b60008190508160005260206000209050919050565b60006020601f8301049050919050565b600082821b905092915050565b600060088302614f437fffffffffffffffffffffffffffffffffffffffffffffffffffffffffffffffff82614f06565b614f4d8683614f06565b95508019841693508086168417925050509392505050565b6000819050919050565b6000614f8a614f85614f808461399c565b614f65565b61399c565b9050919050565b6000819050919050565b614fa483614f6f565b614fb8614fb082614f91565b848454614f13565b825550505050565b600090565b614fcd614fc0565b614fd8818484614f9b565b505050565b5b81811015614ffc57614ff1600082614fc5565b600181019050614fde565b5050565b601f8211156150415761501281614ee1565b61501b84614ef6565b8101602085101561502a578190505b61503e61503685614ef6565b830182614fdd565b50505b505050565b600082821c905092915050565b600061506460001984600802615046565b1980831691505092915050565b600061507d8383615053565b9150826002028217905092915050565b6150978383614ed6565b67ffffffffffffffff8111156150b0576150af613e02565b5b6150ba825461407b565b6150c5828285615000565b6000601f8311600181146150f457600084156150e2578287013590505b6150ec8582615071565b865550615154565b601f19841661510286614ee1565b60005b8281101561512a57848901358255600182019150602085019450602081019050615105565b868310156151475784890135615143601f891682615053565b8355505b6001600288020188555050505b50505050505050565b600081905092915050565b6000615174838561515d565b9350615181838584613eae565b82840190509392505050565b600061519a828486615168565b91508190509392505050565b6000610180820190506151bc600083018f613ba7565b6151c9602083018e613ac7565b6151d6604083018d613ba7565b6151e3606083018c613ba7565b6151f0608083018b613ac7565b6151fd60a083018a613ba7565b61520a60c0830189613ba7565b61521760e0830188613ba7565b615225610100830187613ba7565b615233610120830186613ba7565b615241610140830185613ba7565b61524f610160830184613ba7565b9d9c50505050505050505050505050565b7f4f776e61626c653a2063616c6c6572206973206e6f7420746865206f776e6572600082015250565b60006152966020836138f5565b91506152a182615260565b602082019050919050565b600060208201905081810360008301526152c581615289565b9050919050565b7f4552433732313a20617070726f766520746f2063616c6c657200000000000000600082015250565b60006153026019836138f5565b915061530d826152cc565b602082019050919050565b60006020820190508181036000830152615331816152f5565b9050919050565b7f4552433732313a207472616e7366657220746f206e6f6e20455243373231526560008201527f63656976657220696d706c656d656e7465720000000000000000000000000000602082015250565b60006153946032836138f5565b915061539f82615338565b604082019050919050565b600060208201905081810360008301526153c381615387565b9050919050565b7f4552433732313a206d696e7420746f20746865207a65726f2061646472657373600082015250565b60006154006020836138f5565b915061540b826153ca565b602082019050919050565b6000602082019050818103600083015261542f816153f3565b9050919050565b7f4552433732313a20746f6b656e20616c7265616479206d696e74656400000000600082015250565b600061546c601c836138f5565b915061547782615436565b602082019050919050565b6000602082019050818103600083015261549b8161545f565b9050919050565b7f4e487b7100000000000000000000000000000000000000000000000000000000600052601260045260246000fd5b60006154dc8261399c565b91506154e78361399c565b92508282019050808211156154ff576154fe6141d0565b5b92915050565b60006155108261399c565b915061551b8361399c565b92508261552b5761552a6154a2565b5b828204905092915050565b60006155418261399c565b915061554c8361399c565b925082820261555a8161399c565b91508282048414831517615571576155706141d0565b5b5092915050565b7f416363657373436f6e74726f6c3a206163636f756e7420000000000000000000600082015250565b60006155ae60178361463c565b91506155b982615578565b601782019050919050565b7f206973206d697373696e6720726f6c6520000000000000000000000000000000600082015250565b60006155fa60118361463c565b9150615605826155c4565b601182019050919050565b600061561b826155a1565b91506156278285614693565b9150615632826155ed565b915061563e8284614693565b91508190509392505050565b7f4e487b7100000000000000000000000000000000000000000000000000000000600052602160045260246000fd5b7f45434453413a20696e76616c6964207369676e61747572650000000000000000600082015250565b60006156af6018836138f5565b91506156ba82615679565b602082019050919050565b600060208201905081810360008301526156de816156a2565b9050919050565b7f45434453413a20696e76616c6964207369676e6174757265206c656e67746800600082015250565b600061571b601f836138f5565b9150615726826156e5565b602082019050919050565b6000602082019050818103600083015261574a8161570e565b9050919050565b7f45434453413a20696e76616c6964207369676e6174757265202773272076616c60008201527f7565000000000000000000000000000000000000000000000000000000000000602082015250565b60006157ad6022836138f5565b91506157b882615751565b604082019050919050565b600060208201905081810360008301526157dc816157a0565b9050919050565b600081519050919050565b600082825260208201905092915050565b600061580a826157e3565b61581481856157ee565b9350615824818560208601613906565b61582d81613930565b840191505092915050565b600060808201905061584d6000830187613a31565b61585a6020830186613a31565b6158676040830185613ac7565b818103606083015261587981846157ff565b905095945050505050565b6000815190506158938161385b565b92915050565b6000602082840312156158af576158ae613825565b5b60006158bd84828501615884565b91505092915050565b60006158d18261399c565b9150600082036158e4576158e36141d0565b5b600182039050919050565b7f537472696e67733a20686578206c656e67746820696e73756666696369656e74600082015250565b60006159256020836138f5565b9150615930826158ef565b602082019050919050565b6000602082019050818103600083015261595481615918565b9050919050565b7f1901000000000000000000000000000000000000000000000000000000000000600082015250565b600061599160028361463c565b915061599c8261595b565b600282019050919050565b6000819050919050565b6159c26159bd82613b44565b6159a7565b82525050565b60006159d382615984565b91506159df82856159b1565b6020820191506159ef82846159b1565b6020820191508190509392505050565b600060ff82169050919050565b615a15816159ff565b82525050565b6000608082019050615a306000830187613ba7565b615a3d6020830186615a0c565b615a4a6040830185613ba7565b615a576060830184613ba7565b95945050505050565b600060a082019050615a756000830188613ba7565b615a826020830187613ba7565b615a8f6040830186613ba7565b615a9c6060830185613ac7565b615aa96080830184613a31565b969550505050505056fe4142434445464748494a4b4c4d4e4f505152535455565758595a6162636465666768696a6b6c6d6e6f707172737475767778797a303132333435363738392b2fa26469706673582212204a58d37a204e512c966eb7d956088524ad110ad02a489f57e0555abd0f6c254b64736f6c63430008130033",
  "linkReferences": {},
  "deployedLinkReferences": {}
}